{
  "_format": "hh-sol-artifact-1",
  "contractName": "AuctionBase",
  "sourceName": "contracts/Auction/AuctionBase.sol",
  "abi": [
    {
      "inputs": [
        {
          "internalType": "address",
          "name": "assetAuctionAddress",
          "type": "address"
        }
      ],
      "stateMutability": "nonpayable",
      "type": "constructor"
    },
    {
      "anonymous": false,
      "inputs": [
        {
          "indexed": false,
          "internalType": "uint256",
          "name": "tokenId",
          "type": "uint256"
        }
      ],
      "name": "AuctionCancelled",
      "type": "event"
    },
    {
      "anonymous": false,
      "inputs": [
        {
          "indexed": false,
          "internalType": "uint256",
          "name": "tokenId",
          "type": "uint256"
        },
        {
          "indexed": false,
          "internalType": "uint256",
          "name": "startingPrice",
          "type": "uint256"
        },
        {
          "indexed": false,
          "internalType": "uint256",
          "name": "duration",
          "type": "uint256"
        }
      ],
      "name": "AuctionCreated",
      "type": "event"
    },
    {
      "anonymous": false,
      "inputs": [
        {
          "indexed": false,
          "internalType": "uint256",
          "name": "tokenId",
          "type": "uint256"
        },
        {
          "indexed": false,
          "internalType": "uint256",
          "name": "salePrice",
          "type": "uint256"
        },
        {
          "indexed": false,
          "internalType": "address",
          "name": "winner",
          "type": "address"
        }
      ],
      "name": "AuctionSuccessful",
      "type": "event"
    },
    {
      "anonymous": false,
      "inputs": [
        {
          "indexed": false,
          "internalType": "uint256",
          "name": "tokenId",
          "type": "uint256"
        },
        {
          "indexed": false,
          "internalType": "address",
          "name": "bidder",
          "type": "address"
        },
        {
          "indexed": false,
          "internalType": "uint256",
          "name": "bidAmount",
          "type": "uint256"
        }
      ],
      "name": "BidPlaced",
      "type": "event"
    },
    {
      "inputs": [
        {
          "internalType": "uint256",
          "name": "",
          "type": "uint256"
        }
      ],
      "name": "Auctions",
      "outputs": [
        {
          "internalType": "uint256",
          "name": "tokenId",
          "type": "uint256"
        },
        {
          "internalType": "address",
          "name": "seller",
          "type": "address"
        },
        {
          "internalType": "uint128",
          "name": "startingPrice",
          "type": "uint128"
        },
        {
          "internalType": "uint128",
          "name": "maxBidPrice",
          "type": "uint128"
        },
        {
          "internalType": "address",
          "name": "maxBidder",
          "type": "address"
        },
        {
          "internalType": "uint64",
          "name": "duration",
          "type": "uint64"
        },
        {
          "internalType": "uint64",
          "name": "startAt",
          "type": "uint64"
        },
        {
          "internalType": "bool",
          "name": "auctionStatus",
          "type": "bool"
        }
      ],
      "stateMutability": "view",
      "type": "function"
    },
    {
      "inputs": [
        {
          "internalType": "uint256",
          "name": "_tokenId",
          "type": "uint256"
        }
      ],
      "name": "BidAuction",
      "outputs": [],
      "stateMutability": "payable",
      "type": "function"
    },
    {
      "inputs": [
        {
          "internalType": "uint256",
          "name": "_tokenId",
          "type": "uint256"
        }
      ],
      "name": "CancelAuction",
      "outputs": [],
      "stateMutability": "nonpayable",
      "type": "function"
    },
    {
      "inputs": [
        {
          "internalType": "uint256",
          "name": "_tokenId",
          "type": "uint256"
        },
        {
          "internalType": "uint256",
          "name": "_startingPrice",
          "type": "uint256"
        },
        {
          "internalType": "uint256",
          "name": "_duration",
          "type": "uint256"
        }
      ],
      "name": "CreateAuction",
      "outputs": [],
      "stateMutability": "nonpayable",
      "type": "function"
    },
    {
      "inputs": [],
      "name": "WithdrawBalance",
      "outputs": [],
      "stateMutability": "nonpayable",
      "type": "function"
    },
    {
      "inputs": [],
      "name": "_pause",
      "outputs": [],
      "stateMutability": "nonpayable",
      "type": "function"
    },
    {
      "inputs": [],
      "name": "_unpause",
      "outputs": [],
      "stateMutability": "nonpayable",
      "type": "function"
    },
    {
      "inputs": [],
      "name": "asset",
      "outputs": [
        {
          "internalType": "contract ERC721",
          "name": "",
          "type": "address"
        }
      ],
      "stateMutability": "view",
      "type": "function"
    },
    {
      "inputs": [],
      "name": "assetBase",
      "outputs": [
        {
          "internalType": "contract AssetBase",
          "name": "",
          "type": "address"
        }
      ],
      "stateMutability": "view",
      "type": "function"
    },
    {
      "inputs": [
        {
          "internalType": "address",
          "name": "",
          "type": "address"
        },
        {
          "internalType": "uint256",
          "name": "",
          "type": "uint256"
        }
      ],
      "name": "assetOnAuction",
      "outputs": [
        {
          "internalType": "uint256",
          "name": "",
          "type": "uint256"
        }
      ],
      "stateMutability": "view",
      "type": "function"
    },
    {
      "inputs": [],
      "name": "assetsOnAuction",
      "outputs": [
        {
          "components": [
            {
              "internalType": "uint256",
              "name": "tokenId",
              "type": "uint256"
            },
            {
              "internalType": "address",
              "name": "seller",
              "type": "address"
            },
            {
              "internalType": "uint128",
              "name": "startingPrice",
              "type": "uint128"
            },
            {
              "internalType": "uint128",
              "name": "maxBidPrice",
              "type": "uint128"
            },
            {
              "internalType": "address",
              "name": "maxBidder",
              "type": "address"
            },
            {
              "internalType": "uint64",
              "name": "duration",
              "type": "uint64"
            },
            {
              "internalType": "uint64",
              "name": "startAt",
              "type": "uint64"
            },
            {
              "internalType": "bool",
              "name": "auctionStatus",
              "type": "bool"
            }
          ],
          "internalType": "struct AuctionCore.Auction[]",
          "name": "",
          "type": "tuple[]"
        }
      ],
      "stateMutability": "view",
      "type": "function"
    },
    {
      "inputs": [
        {
          "internalType": "address",
          "name": "account",
          "type": "address"
        }
      ],
      "name": "auctionBalance",
      "outputs": [
        {
          "internalType": "uint256",
          "name": "",
          "type": "uint256"
        }
      ],
      "stateMutability": "view",
      "type": "function"
    },
    {
      "inputs": [
        {
          "internalType": "uint256",
          "name": "_tokenId",
          "type": "uint256"
        },
        {
          "internalType": "address",
          "name": "claimant",
          "type": "address"
        }
      ],
      "name": "claim",
      "outputs": [],
      "stateMutability": "nonpayable",
      "type": "function"
    },
    {
      "inputs": [],
      "name": "getAllAuctions",
      "outputs": [
        {
          "components": [
            {
              "internalType": "uint256",
              "name": "tokenId",
              "type": "uint256"
            },
            {
              "internalType": "address",
              "name": "seller",
              "type": "address"
            },
            {
              "internalType": "uint128",
              "name": "startingPrice",
              "type": "uint128"
            },
            {
              "internalType": "uint128",
              "name": "maxBidPrice",
              "type": "uint128"
            },
            {
              "internalType": "address",
              "name": "maxBidder",
              "type": "address"
            },
            {
              "internalType": "uint64",
              "name": "duration",
              "type": "uint64"
            },
            {
              "internalType": "uint64",
              "name": "startAt",
              "type": "uint64"
            },
            {
              "internalType": "bool",
              "name": "auctionStatus",
              "type": "bool"
            }
          ],
          "internalType": "struct AuctionCore.Auction[]",
          "name": "",
          "type": "tuple[]"
        }
      ],
      "stateMutability": "view",
      "type": "function"
    },
    {
      "inputs": [
        {
          "internalType": "uint256",
          "name": "_tokenId",
          "type": "uint256"
        }
      ],
      "name": "getAuction",
      "outputs": [
        {
          "components": [
            {
              "internalType": "uint256",
              "name": "tokenId",
              "type": "uint256"
            },
            {
              "internalType": "address",
              "name": "seller",
              "type": "address"
            },
            {
              "internalType": "uint128",
              "name": "startingPrice",
              "type": "uint128"
            },
            {
              "internalType": "uint128",
              "name": "maxBidPrice",
              "type": "uint128"
            },
            {
              "internalType": "address",
              "name": "maxBidder",
              "type": "address"
            },
            {
              "internalType": "uint64",
              "name": "duration",
              "type": "uint64"
            },
            {
              "internalType": "uint64",
              "name": "startAt",
              "type": "uint64"
            },
            {
              "internalType": "bool",
              "name": "auctionStatus",
              "type": "bool"
            }
          ],
          "internalType": "struct AuctionCore.Auction",
          "name": "",
          "type": "tuple"
        }
      ],
      "stateMutability": "view",
      "type": "function"
    },
    {
      "inputs": [
        {
          "internalType": "uint256",
          "name": "_tokenId",
          "type": "uint256"
        }
      ],
      "name": "isOnAuction",
      "outputs": [
        {
          "internalType": "bool",
          "name": "",
          "type": "bool"
        }
      ],
      "stateMutability": "view",
      "type": "function"
    },
    {
      "inputs": [
        {
          "internalType": "address",
          "name": "",
          "type": "address"
        }
      ],
      "name": "onAuctionCount",
      "outputs": [
        {
          "internalType": "uint256",
          "name": "",
          "type": "uint256"
        }
      ],
      "stateMutability": "view",
      "type": "function"
    },
    {
      "inputs": [],
      "name": "owner",
      "outputs": [
        {
          "internalType": "address",
          "name": "",
          "type": "address"
        }
      ],
      "stateMutability": "view",
      "type": "function"
    },
    {
      "inputs": [],
      "name": "paused",
      "outputs": [
        {
          "internalType": "bool",
          "name": "",
          "type": "bool"
        }
      ],
      "stateMutability": "view",
      "type": "function"
    },
    {
      "inputs": [
        {
          "internalType": "uint256",
          "name": "",
          "type": "uint256"
        }
      ],
      "name": "tokenIdToAuction",
      "outputs": [
        {
          "internalType": "uint256",
          "name": "",
          "type": "uint256"
        }
      ],
      "stateMutability": "view",
      "type": "function"
    }
  ],
  "bytecode": "0x60806040523480156200001157600080fd5b506040516200512d3803806200512d8339818101604052810190620000379190620004bc565b6000600260146101000a81548160ff021916908315150217905550600060405180610100016040528060008152602001600073ffffffffffffffffffffffffffffffffffffffff16815260200160006fffffffffffffffffffffffffffffffff16815260200160006fffffffffffffffffffffffffffffffff168152602001600073ffffffffffffffffffffffffffffffffffffffff168152602001600067ffffffffffffffff168152602001600067ffffffffffffffff16815260200160001515815250905060038190806001815401808255809150506001900390600052602060002090600502016000909190919091506000820151816000015560208201518160010160006101000a81548173ffffffffffffffffffffffffffffffffffffffff021916908373ffffffffffffffffffffffffffffffffffffffff16021790555060408201518160020160006101000a8154816fffffffffffffffffffffffffffffffff02191690836fffffffffffffffffffffffffffffffff16021790555060608201518160020160106101000a8154816fffffffffffffffffffffffffffffffff02191690836fffffffffffffffffffffffffffffffff16021790555060808201518160030160006101000a81548173ffffffffffffffffffffffffffffffffffffffff021916908373ffffffffffffffffffffffffffffffffffffffff16021790555060a08201518160030160146101000a81548167ffffffffffffffff021916908367ffffffffffffffff16021790555060c08201518160040160006101000a81548167ffffffffffffffff021916908367ffffffffffffffff16021790555060e08201518160040160086101000a81548160ff02191690831515021790555050505033600760006101000a81548173ffffffffffffffffffffffffffffffffffffffff021916908373ffffffffffffffffffffffffffffffffffffffff1602179055506000600760146101000a81548160ff02191690831515021790555080600160006101000a81548173ffffffffffffffffffffffffffffffffffffffff021916908373ffffffffffffffffffffffffffffffffffffffff16021790555080600260006101000a81548173ffffffffffffffffffffffffffffffffffffffff021916908373ffffffffffffffffffffffffffffffffffffffff160217905550620003b081620003b760201b60201c565b50620005ab565b3373ffffffffffffffffffffffffffffffffffffffff16620003de6200047b60201b60201c565b73ffffffffffffffffffffffffffffffffffffffff161462000437576040517f08c379a00000000000000000000000000000000000000000000000000000000081526004016200042e906200052a565b60405180910390fd5b80600760006101000a81548173ffffffffffffffffffffffffffffffffffffffff021916908373ffffffffffffffffffffffffffffffffffffffff16021790555050565b6000600760009054906101000a900473ffffffffffffffffffffffffffffffffffffffff16905090565b600081519050620004b68162000591565b92915050565b600060208284031215620004cf57600080fd5b6000620004df84828501620004a5565b91505092915050565b6000620004f7601f836200054c565b91507f4f6e6c79206f776e6572206f6620636f6e74726163742063616e2063616c6c006000830152602082019050919050565b600060208201905081810360008301526200054581620004e8565b9050919050565b600082825260208201905092915050565b60006200056a8262000571565b9050919050565b600073ffffffffffffffffffffffffffffffffffffffff82169050919050565b6200059c816200055d565b8114620005a857600080fd5b50565b614b7280620005bb6000396000f3fe60806040526004361061011f5760003560e01c8063a39d716d116100a0578063ddd5e1b211610064578063ddd5e1b2146103ca578063e3b14757146103f3578063e8cd181f14610430578063fa6ae7be14610474578063fc8234cb1461049d5761011f565b8063a39d716d146102e5578063bea0e66c146102fc578063cbd2bdfd14610325578063d36443ca14610350578063d51b21071461038d5761011f565b806378bd7935116100e757806378bd7935146101f957806389d7e5a8146102365780638da5cb5b1461025257806399b804bd1461027d5780639f9a1600146102ba5761011f565b80630f90213c14610124578063320b2ad91461014f57806337e246ad1461016657806338d52e0f146101a35780635c975abb146101ce575b600080fd5b34801561013057600080fd5b506101396104b4565b6040516101469190614376565b60405180910390f35b34801561015b57600080fd5b50610164610872565b005b34801561017257600080fd5b5061018d60048036038101906101889190613b4e565b6108de565b60405161019a9190614398565b60405180910390f35b3480156101af57600080fd5b506101b86108f0565b6040516101c591906143ce565b60405180910390f35b3480156101da57600080fd5b506101e3610916565b6040516101f09190614398565b60405180910390f35b34801561020557600080fd5b50610220600480360381019061021b9190613b4e565b61092d565b60405161022d9190614609565b60405180910390f35b610250600480360381019061024b9190613b4e565b610b6c565b005b34801561025e57600080fd5b50610267610c83565b6040516102749190614324565b60405180910390f35b34801561028957600080fd5b506102a4600480360381019061029f9190613b12565b610cad565b6040516102b19190614625565b60405180910390f35b3480156102c657600080fd5b506102cf610cd2565b6040516102dc91906143b3565b60405180910390f35b3480156102f157600080fd5b506102fa610cf8565b005b34801561030857600080fd5b50610323600480360381019061031e9190613b4e565b610dec565b005b34801561033157600080fd5b5061033a610f6a565b6040516103479190614376565b60405180910390f35b34801561035c57600080fd5b5061037760048036038101906103729190613ac0565b611193565b6040516103849190614625565b60405180910390f35b34801561039957600080fd5b506103b460048036038101906103af9190613ac0565b6111dc565b6040516103c19190614625565b60405180910390f35b3480156103d657600080fd5b506103f160048036038101906103ec9190613b77565b6111f4565b005b3480156103ff57600080fd5b5061041a60048036038101906104159190613b4e565b611551565b6040516104279190614625565b60405180910390f35b34801561043c57600080fd5b5061045760048036038101906104529190613b4e565b611569565b60405161046b989796959493929190614669565b60405180910390f35b34801561048057600080fd5b5061049b60048036038101906104969190613bb3565b61166e565b005b3480156104a957600080fd5b506104b2611ad4565b005b60606000600660003373ffffffffffffffffffffffffffffffffffffffff1673ffffffffffffffffffffffffffffffffffffffff16815260200190815260200160002054905060008167ffffffffffffffff81111561053c577f4e487b7100000000000000000000000000000000000000000000000000000000600052604160045260246000fd5b60405190808252806020026020018201604052801561057557816020015b6105626139d6565b81526020019060019003908161055a5790505b5090506000600190505b82811161086957600360046000600560003373ffffffffffffffffffffffffffffffffffffffff1673ffffffffffffffffffffffffffffffffffffffff16815260200190815260200160002060008581526020019081526020016000205481526020019081526020016000205481548110610623577f4e487b7100000000000000000000000000000000000000000000000000000000600052603260045260246000fd5b906000526020600020906005020160405180610100016040529081600082015481526020016001820160009054906101000a900473ffffffffffffffffffffffffffffffffffffffff1673ffffffffffffffffffffffffffffffffffffffff1673ffffffffffffffffffffffffffffffffffffffff1681526020016002820160009054906101000a90046fffffffffffffffffffffffffffffffff166fffffffffffffffffffffffffffffffff166fffffffffffffffffffffffffffffffff1681526020016002820160109054906101000a90046fffffffffffffffffffffffffffffffff166fffffffffffffffffffffffffffffffff166fffffffffffffffffffffffffffffffff1681526020016003820160009054906101000a900473ffffffffffffffffffffffffffffffffffffffff1673ffffffffffffffffffffffffffffffffffffffff1673ffffffffffffffffffffffffffffffffffffffff1681526020016003820160149054906101000a900467ffffffffffffffff1667ffffffffffffffff1667ffffffffffffffff1681526020016004820160009054906101000a900467ffffffffffffffff1667ffffffffffffffff1667ffffffffffffffff1681526020016004820160089054906101000a900460ff161515151581525050826001836108149190614925565b8151811061084b577f4e487b7100000000000000000000000000000000000000000000000000000000600052603260045260246000fd5b6020026020010181905250808061086190614a67565b91505061057f565b50809250505090565b61087a610916565b156108ba576040517f08c379a00000000000000000000000000000000000000000000000000000000081526004016108b1906145a9565b60405180910390fd5b6001600760146101000a81548160ff02191690831515021790555042600881905550565b60006108e982611b38565b9050919050565b600160009054906101000a900473ffffffffffffffffffffffffffffffffffffffff1681565b6000600760149054906101000a900460ff16905090565b6109356139d6565b6003600460008481526020019081526020016000205481548110610982577f4e487b7100000000000000000000000000000000000000000000000000000000600052603260045260246000fd5b906000526020600020906005020160405180610100016040529081600082015481526020016001820160009054906101000a900473ffffffffffffffffffffffffffffffffffffffff1673ffffffffffffffffffffffffffffffffffffffff1673ffffffffffffffffffffffffffffffffffffffff1681526020016002820160009054906101000a90046fffffffffffffffffffffffffffffffff166fffffffffffffffffffffffffffffffff166fffffffffffffffffffffffffffffffff1681526020016002820160109054906101000a90046fffffffffffffffffffffffffffffffff166fffffffffffffffffffffffffffffffff166fffffffffffffffffffffffffffffffff1681526020016003820160009054906101000a900473ffffffffffffffffffffffffffffffffffffffff1673ffffffffffffffffffffffffffffffffffffffff1673ffffffffffffffffffffffffffffffffffffffff1681526020016003820160149054906101000a900467ffffffffffffffff1667ffffffffffffffff1667ffffffffffffffff1681526020016004820160009054906101000a900467ffffffffffffffff1667ffffffffffffffff1667ffffffffffffffff1681526020016004820160089054906101000a900460ff1615151515815250509050919050565b610b74610916565b15610bb4576040517f08c379a0000000000000000000000000000000000000000000000000000000008152600401610bab906145a9565b60405180910390fd5b610bbd81611b38565b610bfc576040517f08c379a0000000000000000000000000000000000000000000000000000000008152600401610bf390614569565b60405180910390fd5b610c068134611bc6565b610c45576040517f08c379a0000000000000000000000000000000000000000000000000000000008152600401610c3c90614549565b60405180910390fd5b7f0e54eff26401bf69b81b26f60bd85ef47f5d85275c1d268d84f68d6897431c47813334604051610c78939291906146e7565b60405180910390a150565b6000600760009054906101000a900473ffffffffffffffffffffffffffffffffffffffff16905090565b6005602052816000526040600020602052806000526040600020600091509150505481565b600260009054906101000a900473ffffffffffffffffffffffffffffffffffffffff1681565b610d00610c83565b73ffffffffffffffffffffffffffffffffffffffff163373ffffffffffffffffffffffffffffffffffffffff1614610d3757600080fd5b600047905060003373ffffffffffffffffffffffffffffffffffffffff1682604051610d629061430f565b60006040518083038185875af1925050503d8060008114610d9f576040519150601f19603f3d011682016040523d82523d6000602084013e610da4565b606091505b5050905080610de8576040517f08c379a0000000000000000000000000000000000000000000000000000000008152600401610ddf90614529565b60405180910390fd5b5050565b610df581611b38565b610e34576040517f08c379a0000000000000000000000000000000000000000000000000000000008152600401610e2b90614569565b60405180910390fd5b60006003600460008481526020019081526020016000205481548110610e83577f4e487b7100000000000000000000000000000000000000000000000000000000600052603260045260246000fd5b906000526020600020906005020160010160009054906101000a900473ffffffffffffffffffffffffffffffffffffffff1690508073ffffffffffffffffffffffffffffffffffffffff163373ffffffffffffffffffffffffffffffffffffffff1614610f25576040517f08c379a0000000000000000000000000000000000000000000000000000000008152600401610f1c906144a9565b60405180910390fd5b610f2f82826120bb565b7f2809c7e17bf978fbc7194c0a694b638c4215e9140cacc6c38ca36010b45697df82604051610f5e9190614625565b60405180910390a15050565b60606003805480602002602001604051908101604052809291908181526020016000905b8282101561118a578382906000526020600020906005020160405180610100016040529081600082015481526020016001820160009054906101000a900473ffffffffffffffffffffffffffffffffffffffff1673ffffffffffffffffffffffffffffffffffffffff1673ffffffffffffffffffffffffffffffffffffffff1681526020016002820160009054906101000a90046fffffffffffffffffffffffffffffffff166fffffffffffffffffffffffffffffffff166fffffffffffffffffffffffffffffffff1681526020016002820160109054906101000a90046fffffffffffffffffffffffffffffffff166fffffffffffffffffffffffffffffffff166fffffffffffffffffffffffffffffffff1681526020016003820160009054906101000a900473ffffffffffffffffffffffffffffffffffffffff1673ffffffffffffffffffffffffffffffffffffffff1673ffffffffffffffffffffffffffffffffffffffff1681526020016003820160149054906101000a900467ffffffffffffffff1667ffffffffffffffff1667ffffffffffffffff1681526020016004820160009054906101000a900467ffffffffffffffff1667ffffffffffffffff1667ffffffffffffffff1681526020016004820160089054906101000a900460ff16151515158152505081526020019060010190610f8e565b50505050905090565b6000600660008373ffffffffffffffffffffffffffffffffffffffff1673ffffffffffffffffffffffffffffffffffffffff168152602001908152602001600020549050919050565b60066020528060005260406000206000915090505481565b6111fc610916565b1561123c576040517f08c379a0000000000000000000000000000000000000000000000000000000008152600401611233906145a9565b60405180910390fd5b6000600360046000858152602001908152602001600020548154811061128b577f4e487b7100000000000000000000000000000000000000000000000000000000600052603260045260246000fd5b906000526020600020906005020160405180610100016040529081600082015481526020016001820160009054906101000a900473ffffffffffffffffffffffffffffffffffffffff1673ffffffffffffffffffffffffffffffffffffffff1673ffffffffffffffffffffffffffffffffffffffff1681526020016002820160009054906101000a90046fffffffffffffffffffffffffffffffff166fffffffffffffffffffffffffffffffff166fffffffffffffffffffffffffffffffff1681526020016002820160109054906101000a90046fffffffffffffffffffffffffffffffff166fffffffffffffffffffffffffffffffff166fffffffffffffffffffffffffffffffff1681526020016003820160009054906101000a900473ffffffffffffffffffffffffffffffffffffffff1673ffffffffffffffffffffffffffffffffffffffff1673ffffffffffffffffffffffffffffffffffffffff1681526020016003820160149054906101000a900467ffffffffffffffff1667ffffffffffffffff1667ffffffffffffffff1681526020016004820160009054906101000a900467ffffffffffffffff1667ffffffffffffffff1667ffffffffffffffff1681526020016004820160089054906101000a900460ff1615151515815250509050428160a001518260c0015161148591906147e1565b67ffffffffffffffff1611156114d0576040517f08c379a00000000000000000000000000000000000000000000000000000000081526004016114c7906144c9565b60405180910390fd5b8173ffffffffffffffffffffffffffffffffffffffff16816080015173ffffffffffffffffffffffffffffffffffffffff1614611542576040517f08c379a000000000000000000000000000000000000000000000000000000000815260040161153990614509565b60405180910390fd5b61154c8383612109565b505050565b60046020528060005260406000206000915090505481565b6003818154811061157957600080fd5b90600052602060002090600502016000915090508060000154908060010160009054906101000a900473ffffffffffffffffffffffffffffffffffffffff16908060020160009054906101000a90046fffffffffffffffffffffffffffffffff16908060020160109054906101000a90046fffffffffffffffffffffffffffffffff16908060030160009054906101000a900473ffffffffffffffffffffffffffffffffffffffff16908060030160149054906101000a900467ffffffffffffffff16908060040160009054906101000a900467ffffffffffffffff16908060040160089054906101000a900460ff16905088565b611676610916565b156116b6576040517f08c379a00000000000000000000000000000000000000000000000000000000081526004016116ad906145a9565b60405180910390fd5b6116bf83611b38565b156116ff576040517f08c379a00000000000000000000000000000000000000000000000000000000081526004016116f6906143e9565b60405180910390fd5b600160009054906101000a900473ffffffffffffffffffffffffffffffffffffffff1673ffffffffffffffffffffffffffffffffffffffff16636352211e846040518263ffffffff1660e01b815260040161175a9190614625565b60206040518083038186803b15801561177257600080fd5b505afa158015611786573d6000803e3d6000fd5b505050506040513d601f19601f820116820180604052508101906117aa9190613ae9565b73ffffffffffffffffffffffffffffffffffffffff163373ffffffffffffffffffffffffffffffffffffffff1614611817576040517f08c379a000000000000000000000000000000000000000000000000000000000815260040161180e906144a9565b60405180910390fd5b3073ffffffffffffffffffffffffffffffffffffffff16600160009054906101000a900473ffffffffffffffffffffffffffffffffffffffff1673ffffffffffffffffffffffffffffffffffffffff1663081812fc856040518263ffffffff1660e01b81526004016118899190614625565b60206040518083038186803b1580156118a157600080fd5b505afa1580156118b5573d6000803e3d6000fd5b505050506040513d601f19601f820116820180604052508101906118d99190613ae9565b73ffffffffffffffffffffffffffffffffffffffff161461192f576040517f08c379a000000000000000000000000000000000000000000000000000000000815260040161192690614429565b60405180910390fd5b816fffffffffffffffffffffffffffffffff168214611983576040517f08c379a000000000000000000000000000000000000000000000000000000000815260040161197a90614449565b60405180910390fd5b8067ffffffffffffffff1681146119cf576040517f08c379a00000000000000000000000000000000000000000000000000000000081526004016119c690614589565b60405180910390fd5b603c811015611a13576040517f08c379a0000000000000000000000000000000000000000000000000000000008152600401611a0a906144e9565b60405180910390fd5b611a1c836124ed565b60006040518061010001604052808581526020013373ffffffffffffffffffffffffffffffffffffffff168152602001846fffffffffffffffffffffffffffffffff16815260200160006fffffffffffffffffffffffffffffffff168152602001600073ffffffffffffffffffffffffffffffffffffffff1681526020018367ffffffffffffffff168152602001600067ffffffffffffffff168152602001600115158152509050611ace8482612610565b50505050565b611adc610916565b611b1b576040517f08c379a0000000000000000000000000000000000000000000000000000000008152600401611b1290614469565b60405180910390fd5b6000600760146101000a81548160ff021916908315150217905550565b600080600460008481526020019081526020016000205490506000811415611b64576000915050611bc1565b60038181548110611b9e577f4e487b7100000000000000000000000000000000000000000000000000000000600052603260045260246000fd5b906000526020600020906005020160040160089054906101000a900460ff169150505b919050565b600060011515600260149054906101000a900460ff1615151415611c1f576040517f08c379a0000000000000000000000000000000000000000000000000000000008152600401611c16906145c9565b60405180910390fd5b6001600260146101000a81548160ff02191690831515021790555060006003600460008681526020019081526020016000205481548110611c89577f4e487b7100000000000000000000000000000000000000000000000000000000600052603260045260246000fd5b9060005260206000209060050201905060003390508160010160009054906101000a900473ffffffffffffffffffffffffffffffffffffffff1673ffffffffffffffffffffffffffffffffffffffff168173ffffffffffffffffffffffffffffffffffffffff161415611d31576040517f08c379a0000000000000000000000000000000000000000000000000000000008152600401611d28906145e9565b60405180910390fd5b60008260040160009054906101000a900467ffffffffffffffff1667ffffffffffffffff161415611e66578160020160009054906101000a90046fffffffffffffffffffffffffffffffff166fffffffffffffffffffffffffffffffff16846fffffffffffffffffffffffffffffffff1610611e5b57428260040160006101000a81548167ffffffffffffffff021916908367ffffffffffffffff160217905550838260020160106101000a8154816fffffffffffffffffffffffffffffffff02191690836fffffffffffffffffffffffffffffffff160217905550808260030160006101000a81548173ffffffffffffffffffffffffffffffffffffffff021916908373ffffffffffffffffffffffffffffffffffffffff16021790555060019250505061209a565b60009250505061209a565b428260030160149054906101000a900467ffffffffffffffff168360040160009054906101000a900467ffffffffffffffff16611ea391906147e1565b67ffffffffffffffff1611611eda5760008260040160086101000a81548160ff02191690831515021790555060009250505061209a565b836fffffffffffffffffffffffffffffffff16600a600b8460020160109054906101000a90046fffffffffffffffffffffffffffffffff16611f1c9190614881565b611f26919061481f565b6fffffffffffffffffffffffffffffffff16116120935760008260030160009054906101000a900473ffffffffffffffffffffffffffffffffffffffff1673ffffffffffffffffffffffffffffffffffffffff168360020160109054906101000a90046fffffffffffffffffffffffffffffffff166fffffffffffffffffffffffffffffffff16604051611fb99061430f565b60006040518083038185875af1925050503d8060008114611ff6576040519150601f19603f3d011682016040523d82523d6000602084013e611ffb565b606091505b505090508061200957600080fd5b818360030160006101000a81548173ffffffffffffffffffffffffffffffffffffffff021916908373ffffffffffffffffffffffffffffffffffffffff160217905550848360020160106101000a8154816fffffffffffffffffffffffffffffffff02191690836fffffffffffffffffffffffffffffffff1602179055506001935050505061209a565b6000925050505b6000600260146101000a81548160ff02191690831515021790555092915050565b6120c4826128f0565b6120ce8183612e42565b7f2809c7e17bf978fbc7194c0a694b638c4215e9140cacc6c38ca36010b45697df826040516120fd9190614625565b60405180910390a15050565b60011515600260149054906101000a900460ff1615151415612160576040517f08c379a0000000000000000000000000000000000000000000000000000000008152600401612157906145c9565b60405180910390fd5b6001600260146101000a81548160ff021916908315150217905550600060036004600085815260200190815260200160002054815481106121ca577f4e487b7100000000000000000000000000000000000000000000000000000000600052603260045260246000fd5b906000526020600020906005020160405180610100016040529081600082015481526020016001820160009054906101000a900473ffffffffffffffffffffffffffffffffffffffff1673ffffffffffffffffffffffffffffffffffffffff1673ffffffffffffffffffffffffffffffffffffffff1681526020016002820160009054906101000a90046fffffffffffffffffffffffffffffffff166fffffffffffffffffffffffffffffffff166fffffffffffffffffffffffffffffffff1681526020016002820160109054906101000a90046fffffffffffffffffffffffffffffffff166fffffffffffffffffffffffffffffffff166fffffffffffffffffffffffffffffffff1681526020016003820160009054906101000a900473ffffffffffffffffffffffffffffffffffffffff1673ffffffffffffffffffffffffffffffffffffffff1673ffffffffffffffffffffffffffffffffffffffff1681526020016003820160149054906101000a900467ffffffffffffffff1667ffffffffffffffff1667ffffffffffffffff1681526020016004820160009054906101000a900467ffffffffffffffff1667ffffffffffffffff1667ffffffffffffffff1681526020016004820160089054906101000a900460ff161515151581525050905060006123d282606001516fffffffffffffffffffffffffffffffff166001612f66565b905060008183606001516fffffffffffffffffffffffffffffffff166123f89190614925565b90506000836020015173ffffffffffffffffffffffffffffffffffffffff16826040516124249061430f565b60006040518083038185875af1925050503d8060008114612461576040519150601f19603f3d011682016040523d82523d6000602084013e612466565b606091505b505090508061247457600080fd5b61247e8587612e42565b61248786612fa4565b7f4fcc30d90a842164dd58501ab874a101a3749c3d4747139cefe7c876f4ccebd286856060015186608001516040516124c29392919061471e565b60405180910390a1505050506000600260146101000a81548160ff0219169083151502179055505050565b600160009054906101000a900473ffffffffffffffffffffffffffffffffffffffff1673ffffffffffffffffffffffffffffffffffffffff166323b872dd3330846040518463ffffffff1660e01b815260040161254c9392919061433f565b600060405180830381600087803b15801561256657600080fd5b505af115801561257a573d6000803e3d6000fd5b50505050600260009054906101000a900473ffffffffffffffffffffffffffffffffffffffff1673ffffffffffffffffffffffffffffffffffffffff166383c6576e82336040518363ffffffff1660e01b81526004016125db929190614640565b600060405180830381600087803b1580156125f557600080fd5b505af1158015612609573d6000803e3d6000fd5b5050505050565b61261a6000613956565b60038190806001815401808255809150506001900390600052602060002090600502016000909190919091506000820151816000015560208201518160010160006101000a81548173ffffffffffffffffffffffffffffffffffffffff021916908373ffffffffffffffffffffffffffffffffffffffff16021790555060408201518160020160006101000a8154816fffffffffffffffffffffffffffffffff02191690836fffffffffffffffffffffffffffffffff16021790555060608201518160020160106101000a8154816fffffffffffffffffffffffffffffffff02191690836fffffffffffffffffffffffffffffffff16021790555060808201518160030160006101000a81548173ffffffffffffffffffffffffffffffffffffffff021916908373ffffffffffffffffffffffffffffffffffffffff16021790555060a08201518160030160146101000a81548167ffffffffffffffff021916908367ffffffffffffffff16021790555060c08201518160040160006101000a81548167ffffffffffffffff021916908367ffffffffffffffff16021790555060e08201518160040160086101000a81548160ff02191690831515021790555050506127e6600061396c565b60046000848152602001908152602001600020819055506000600660003373ffffffffffffffffffffffffffffffffffffffff1673ffffffffffffffffffffffffffffffffffffffff1681526020019081526020016000206000815461284b90614a67565b919050819055905082600560003373ffffffffffffffffffffffffffffffffffffffff1673ffffffffffffffffffffffffffffffffffffffff1681526020019081526020016000206000838152602001908152602001600020819055507fd6eddd1118d71820909c1197aa966dbc15ed6f508554252169cc3d5ccac756ca8383604001518460a001516040516128e393929190614755565b60405180910390a1505050565b60011515600260149054906101000a900460ff1615151415612947576040517f08c379a000000000000000000000000000000000000000000000000000000000815260040161293e906145c9565b60405180910390fd5b6001600260146101000a81548160ff021916908315150217905550600060036004600084815260200190815260200160002054815481106129b1577f4e487b7100000000000000000000000000000000000000000000000000000000600052603260045260246000fd5b906000526020600020906005020160405180610100016040529081600082015481526020016001820160009054906101000a900473ffffffffffffffffffffffffffffffffffffffff1673ffffffffffffffffffffffffffffffffffffffff1673ffffffffffffffffffffffffffffffffffffffff1681526020016002820160009054906101000a90046fffffffffffffffffffffffffffffffff166fffffffffffffffffffffffffffffffff166fffffffffffffffffffffffffffffffff1681526020016002820160109054906101000a90046fffffffffffffffffffffffffffffffff166fffffffffffffffffffffffffffffffff166fffffffffffffffffffffffffffffffff1681526020016003820160009054906101000a900473ffffffffffffffffffffffffffffffffffffffff1673ffffffffffffffffffffffffffffffffffffffff1673ffffffffffffffffffffffffffffffffffffffff1681526020016003820160149054906101000a900467ffffffffffffffff1667ffffffffffffffff1667ffffffffffffffff1681526020016004820160009054906101000a900467ffffffffffffffff1667ffffffffffffffff1667ffffffffffffffff1681526020016004820160089054906101000a900460ff161515151581525050905060008160c0015167ffffffffffffffff161415612bbb57612bb682612fa4565b612e23565b428160a001518260c00151612bd091906147e1565b67ffffffffffffffff161115612c7f576000816080015173ffffffffffffffffffffffffffffffffffffffff1682606001516fffffffffffffffffffffffffffffffff16604051612c209061430f565b60006040518083038185875af1925050503d8060008114612c5d576040519150601f19603f3d011682016040523d82523d6000602084013e612c62565b606091505b5050905080612c7057600080fd5b612c7983612fa4565b50612e22565b42620151808260a001518360c00151612c9891906147e1565b612ca291906147e1565b67ffffffffffffffff1611612de6576000612cd482606001516fffffffffffffffffffffffffffffffff166000612f66565b90506000826020015173ffffffffffffffffffffffffffffffffffffffff1682604051612d009061430f565b60006040518083038185875af1925050503d8060008114612d3d576040519150601f19603f3d011682016040523d82523d6000602084013e612d42565b606091505b5050905080612d5057600080fd5b826080015173ffffffffffffffffffffffffffffffffffffffff16600283612d7891906148cb565b604051612d849061430f565b60006040518083038185875af1925050503d8060008114612dc1576040519150601f19603f3d011682016040523d82523d6000602084013e612dc6565b606091505b50508091505080612dd657600080fd5b612ddf84612fa4565b5050612e21565b6040517f08c379a0000000000000000000000000000000000000000000000000000000008152600401612e1890614489565b60405180910390fd5b5b5b506000600260146101000a81548160ff02191690831515021790555050565b600160009054906101000a900473ffffffffffffffffffffffffffffffffffffffff1673ffffffffffffffffffffffffffffffffffffffff166323b872dd3084846040518463ffffffff1660e01b8152600401612ea19392919061433f565b600060405180830381600087803b158015612ebb57600080fd5b505af1158015612ecf573d6000803e3d6000fd5b50505050600260009054906101000a900473ffffffffffffffffffffffffffffffffffffffff1673ffffffffffffffffffffffffffffffffffffffff16634fb2724a82846040518363ffffffff1660e01b8152600401612f30929190614640565b600060405180830381600087803b158015612f4a57600080fd5b505af1158015612f5e573d6000803e3d6000fd5b505050505050565b60008115612f8e576064600284612f7d91906148cb565b612f879190614850565b9050612f9e565b600483612f9b9190614850565b90505b92915050565b60006003600460008481526020019081526020016000205481548110612ff3577f4e487b7100000000000000000000000000000000000000000000000000000000600052603260045260246000fd5b906000526020600020906005020160405180610100016040529081600082015481526020016001820160009054906101000a900473ffffffffffffffffffffffffffffffffffffffff1673ffffffffffffffffffffffffffffffffffffffff1673ffffffffffffffffffffffffffffffffffffffff1681526020016002820160009054906101000a90046fffffffffffffffffffffffffffffffff166fffffffffffffffffffffffffffffffff166fffffffffffffffffffffffffffffffff1681526020016002820160109054906101000a90046fffffffffffffffffffffffffffffffff166fffffffffffffffffffffffffffffffff166fffffffffffffffffffffffffffffffff1681526020016003820160009054906101000a900473ffffffffffffffffffffffffffffffffffffffff1673ffffffffffffffffffffffffffffffffffffffff1673ffffffffffffffffffffffffffffffffffffffff1681526020016003820160149054906101000a900467ffffffffffffffff1667ffffffffffffffff1667ffffffffffffffff1681526020016004820160009054906101000a900467ffffffffffffffff1667ffffffffffffffff1667ffffffffffffffff1681526020016004820160089054906101000a900460ff1615151515815250509050600060066000836020015173ffffffffffffffffffffffffffffffffffffffff1673ffffffffffffffffffffffffffffffffffffffff168152602001908152602001600020600081548092919061322e90614a3d565b9190505590506000600190505b8181116133bb578360056000856020015173ffffffffffffffffffffffffffffffffffffffff1673ffffffffffffffffffffffffffffffffffffffff16815260200190815260200160002060008381526020019081526020016000205414156133a85760056000846020015173ffffffffffffffffffffffffffffffffffffffff1673ffffffffffffffffffffffffffffffffffffffff16815260200190815260200160002060008381526020019081526020016000205460056000856020015173ffffffffffffffffffffffffffffffffffffffff1673ffffffffffffffffffffffffffffffffffffffff16815260200190815260200160002060008381526020019081526020016000208190555060056000846020015173ffffffffffffffffffffffffffffffffffffffff1673ffffffffffffffffffffffffffffffffffffffff1681526020019081526020016000206000838152602001908152602001600020600090556133bb565b80806133b390614a67565b91505061323b565b5060036133c8600061396c565b815481106133ff577f4e487b7100000000000000000000000000000000000000000000000000000000600052603260045260246000fd5b906000526020600020906005020160405180610100016040529081600082015481526020016001820160009054906101000a900473ffffffffffffffffffffffffffffffffffffffff1673ffffffffffffffffffffffffffffffffffffffff1673ffffffffffffffffffffffffffffffffffffffff1681526020016002820160009054906101000a90046fffffffffffffffffffffffffffffffff166fffffffffffffffffffffffffffffffff166fffffffffffffffffffffffffffffffff1681526020016002820160109054906101000a90046fffffffffffffffffffffffffffffffff166fffffffffffffffffffffffffffffffff166fffffffffffffffffffffffffffffffff1681526020016003820160009054906101000a900473ffffffffffffffffffffffffffffffffffffffff1673ffffffffffffffffffffffffffffffffffffffff1673ffffffffffffffffffffffffffffffffffffffff1681526020016003820160149054906101000a900467ffffffffffffffff1667ffffffffffffffff1667ffffffffffffffff1681526020016004820160009054906101000a900467ffffffffffffffff1667ffffffffffffffff1667ffffffffffffffff1681526020016004820160089054906101000a900460ff16151515158152505091506000600460008581526020019081526020016000205490508260038281548110613637577f4e487b7100000000000000000000000000000000000000000000000000000000600052603260045260246000fd5b90600052602060002090600502016000820151816000015560208201518160010160006101000a81548173ffffffffffffffffffffffffffffffffffffffff021916908373ffffffffffffffffffffffffffffffffffffffff16021790555060408201518160020160006101000a8154816fffffffffffffffffffffffffffffffff02191690836fffffffffffffffffffffffffffffffff16021790555060608201518160020160106101000a8154816fffffffffffffffffffffffffffffffff02191690836fffffffffffffffffffffffffffffffff16021790555060808201518160030160006101000a81548173ffffffffffffffffffffffffffffffffffffffff021916908373ffffffffffffffffffffffffffffffffffffffff16021790555060a08201518160030160146101000a81548167ffffffffffffffff021916908367ffffffffffffffff16021790555060c08201518160040160006101000a81548167ffffffffffffffff021916908367ffffffffffffffff16021790555060e08201518160040160086101000a81548160ff0219169083151502179055509050506003805480613814577f4e487b7100000000000000000000000000000000000000000000000000000000600052603160045260246000fd5b60019003818190600052602060002090600502016000808201600090556001820160006101000a81549073ffffffffffffffffffffffffffffffffffffffff02191690556002820160006101000a8154906fffffffffffffffffffffffffffffffff02191690556002820160106101000a8154906fffffffffffffffffffffffffffffffff02191690556003820160006101000a81549073ffffffffffffffffffffffffffffffffffffffff02191690556003820160146101000a81549067ffffffffffffffff02191690556004820160006101000a81549067ffffffffffffffff02191690556004820160086101000a81549060ff02191690555050905561391d600061397a565b80600460008560000151815260200190815260200160002081905550600460008581526020019081526020016000206000905550505050565b6001816000016000828254019250508190555050565b600081600001549050919050565b600081600001549050600081116139c6576040517f08c379a00000000000000000000000000000000000000000000000000000000081526004016139bd90614409565b60405180910390fd5b6001810382600001819055505050565b60405180610100016040528060008152602001600073ffffffffffffffffffffffffffffffffffffffff16815260200160006fffffffffffffffffffffffffffffffff16815260200160006fffffffffffffffffffffffffffffffff168152602001600073ffffffffffffffffffffffffffffffffffffffff168152602001600067ffffffffffffffff168152602001600067ffffffffffffffff1681526020016000151581525090565b600081359050613a9081614b0e565b92915050565b600081519050613aa581614b0e565b92915050565b600081359050613aba81614b25565b92915050565b600060208284031215613ad257600080fd5b6000613ae084828501613a81565b91505092915050565b600060208284031215613afb57600080fd5b6000613b0984828501613a96565b91505092915050565b60008060408385031215613b2557600080fd5b6000613b3385828601613a81565b9250506020613b4485828601613aab565b9150509250929050565b600060208284031215613b6057600080fd5b6000613b6e84828501613aab565b91505092915050565b60008060408385031215613b8a57600080fd5b6000613b9885828601613aab565b9250506020613ba985828601613a81565b9150509250929050565b600080600060608486031215613bc857600080fd5b6000613bd686828701613aab565b9350506020613be786828701613aab565b9250506040613bf886828701613aab565b9150509250925092565b6000613c0e8383614153565b6101008301905092915050565b613c2481614959565b82525050565b613c3381614959565b82525050565b6000613c448261479c565b613c4e81856147b4565b9350613c598361478c565b8060005b83811015613c8a578151613c718882613c02565b9750613c7c836147a7565b925050600181019050613c5d565b5085935050505092915050565b613ca08161496b565b82525050565b613caf8161496b565b82525050565b613cbe816149d1565b82525050565b613ccd816149f5565b82525050565b6000613ce06016836147d0565b91507f41756374696f6e20616c726561647920657869737473000000000000000000006000830152602082019050919050565b6000613d20601b836147d0565b91507f436f756e7465723a2064656372656d656e74206f766572666c6f7700000000006000830152602082019050919050565b6000613d60601c836147d0565b91507f4e4654206e6f7420617070726f76656420666f722061756374696f6e000000006000830152602082019050919050565b6000613da0601b836147d0565b91507f5374617274696e67205072696365206e6f7420696e2072616e676500000000006000830152602082019050919050565b6000613de06014836147d0565b91507f53797374656d206973204e6f74205061757365640000000000000000000000006000830152602082019050919050565b6000613e20601f836147d0565b91507f436c61696d696e6720506572696f64206973206e6f74204f76657220796574006000830152602082019050919050565b6000613e60601b836147d0565b91507f4e465420717565727920666f72206e6f74206f776e6564204e465400000000006000830152602082019050919050565b6000613ea06017836147d0565b91507f41756374696f6e206973206e6f74204f766572207965740000000000000000006000830152602082019050919050565b6000613ee0602e836147d0565b91507f4475726174696f6e206d75737420626520657175616c206f722067726561746560008301527f72207468616e203120686f7572730000000000000000000000000000000000006020830152604082019050919050565b6000613f466015836147d0565b91507f4f6e6c792057696e6e65722063616e20436c61696d00000000000000000000006000830152602082019050919050565b6000613f866011836147d0565b91507f5769746864726177616c204661696c65640000000000000000000000000000006000830152602082019050919050565b6000613fc6600a836147d0565b91507f426964204661696c6564000000000000000000000000000000000000000000006000830152602082019050919050565b60006140066012836147d0565b91507f4e4654206e6f74206f6e2041756374696f6e00000000000000000000000000006000830152602082019050919050565b60006140466000836147c5565b9150600082019050919050565b60006140606015836147d0565b91507f4475726174696f6e206e6f7420696e2052616e676500000000000000000000006000830152602082019050919050565b60006140a06010836147d0565b91507f53797374656d20696e20506175736564000000000000000000000000000000006000830152602082019050919050565b60006140e06015836147d0565b91507f52652d656e74726163792050726f6869626974656400000000000000000000006000830152602082019050919050565b60006141206010836147d0565b91507f53656c6c65722063616e277420426964000000000000000000000000000000006000830152602082019050919050565b6101008201600082015161416a60008501826142c4565b50602082015161417d6020850182613c1b565b5060408201516141906040850182614297565b5060608201516141a36060850182614297565b5060808201516141b66080850182613c1b565b5060a08201516141c960a08501826142f1565b5060c08201516141dc60c08501826142f1565b5060e08201516141ef60e0850182613c97565b50505050565b6101008201600082015161420c60008501826142c4565b50602082015161421f6020850182613c1b565b5060408201516142326040850182614297565b5060608201516142456060850182614297565b5060808201516142586080850182613c1b565b5060a082015161426b60a08501826142f1565b5060c082015161427e60c08501826142f1565b5060e082015161429160e0850182613c97565b50505050565b6142a081614977565b82525050565b6142af81614977565b82525050565b6142be81614a19565b82525050565b6142cd816149b3565b82525050565b6142dc816149b3565b82525050565b6142eb81614a2b565b82525050565b6142fa816149bd565b82525050565b614309816149bd565b82525050565b600061431a82614039565b9150819050919050565b60006020820190506143396000830184613c2a565b92915050565b60006060820190506143546000830186613c2a565b6143616020830185613c2a565b61436e60408301846142d3565b949350505050565b600060208201905081810360008301526143908184613c39565b905092915050565b60006020820190506143ad6000830184613ca6565b92915050565b60006020820190506143c86000830184613cb5565b92915050565b60006020820190506143e36000830184613cc4565b92915050565b6000602082019050818103600083015261440281613cd3565b9050919050565b6000602082019050818103600083015261442281613d13565b9050919050565b6000602082019050818103600083015261444281613d53565b9050919050565b6000602082019050818103600083015261446281613d93565b9050919050565b6000602082019050818103600083015261448281613dd3565b9050919050565b600060208201905081810360008301526144a281613e13565b9050919050565b600060208201905081810360008301526144c281613e53565b9050919050565b600060208201905081810360008301526144e281613e93565b9050919050565b6000602082019050818103600083015261450281613ed3565b9050919050565b6000602082019050818103600083015261452281613f39565b9050919050565b6000602082019050818103600083015261454281613f79565b9050919050565b6000602082019050818103600083015261456281613fb9565b9050919050565b6000602082019050818103600083015261458281613ff9565b9050919050565b600060208201905081810360008301526145a281614053565b9050919050565b600060208201905081810360008301526145c281614093565b9050919050565b600060208201905081810360008301526145e2816140d3565b9050919050565b6000602082019050818103600083015261460281614113565b9050919050565b60006101008201905061461f60008301846141f5565b92915050565b600060208201905061463a60008301846142d3565b92915050565b600060408201905061465560008301856142d3565b6146626020830184613c2a565b9392505050565b60006101008201905061467f600083018b6142d3565b61468c602083018a613c2a565b61469960408301896142a6565b6146a660608301886142a6565b6146b36080830187613c2a565b6146c060a0830186614300565b6146cd60c0830185614300565b6146da60e0830184613ca6565b9998505050505050505050565b60006060820190506146fc60008301866142d3565b6147096020830185613c2a565b61471660408301846142d3565b949350505050565b600060608201905061473360008301866142d3565b61474060208301856142b5565b61474d6040830184613c2a565b949350505050565b600060608201905061476a60008301866142d3565b61477760208301856142b5565b61478460408301846142e2565b949350505050565b6000819050602082019050919050565b600081519050919050565b6000602082019050919050565b600082825260208201905092915050565b600081905092915050565b600082825260208201905092915050565b60006147ec826149bd565b91506147f7836149bd565b92508267ffffffffffffffff0382111561481457614813614ab0565b5b828201905092915050565b600061482a82614977565b915061483583614977565b92508261484557614844614adf565b5b828204905092915050565b600061485b826149b3565b9150614866836149b3565b92508261487657614875614adf565b5b828204905092915050565b600061488c82614977565b915061489783614977565b9250816fffffffffffffffffffffffffffffffff04831182151516156148c0576148bf614ab0565b5b828202905092915050565b60006148d6826149b3565b91506148e1836149b3565b9250817fffffffffffffffffffffffffffffffffffffffffffffffffffffffffffffffff048311821515161561491a57614919614ab0565b5b828202905092915050565b6000614930826149b3565b915061493b836149b3565b92508282101561494e5761494d614ab0565b5b828203905092915050565b600061496482614993565b9050919050565b60008115159050919050565b60006fffffffffffffffffffffffffffffffff82169050919050565b600073ffffffffffffffffffffffffffffffffffffffff82169050919050565b6000819050919050565b600067ffffffffffffffff82169050919050565b60006149dc826149e3565b9050919050565b60006149ee82614993565b9050919050565b6000614a0082614a07565b9050919050565b6000614a1282614993565b9050919050565b6000614a2482614977565b9050919050565b6000614a36826149bd565b9050919050565b6000614a48826149b3565b91506000821415614a5c57614a5b614ab0565b5b600182039050919050565b6000614a72826149b3565b91507fffffffffffffffffffffffffffffffffffffffffffffffffffffffffffffffff821415614aa557614aa4614ab0565b5b600182019050919050565b7f4e487b7100000000000000000000000000000000000000000000000000000000600052601160045260246000fd5b7f4e487b7100000000000000000000000000000000000000000000000000000000600052601260045260246000fd5b614b1781614959565b8114614b2257600080fd5b50565b614b2e816149b3565b8114614b3957600080fd5b5056fea26469706673582212201ae16cb7d12f6f676c5ecea32439ed38d74acd1ca1b626dfdd51dd66f6c838bb64736f6c63430008000033",
  "linkReferences": {},
  "deployedLinkReferences": {}
}