{
  "_format": "hh-sol-artifact-1",
  "contractName": "AuctionCore",
  "sourceName": "contracts/Auction/AuctionCore.sol",
  "abi": [
    {
      "inputs": [],
      "stateMutability": "nonpayable",
      "type": "constructor"
    },
    {
      "anonymous": false,
      "inputs": [
        {
          "indexed": false,
          "internalType": "uint256",
          "name": "tokenId",
          "type": "uint256"
        }
      ],
      "name": "AuctionCancelled",
      "type": "event"
    },
    {
      "anonymous": false,
      "inputs": [
        {
          "indexed": false,
          "internalType": "uint256",
          "name": "tokenId",
          "type": "uint256"
        },
        {
          "indexed": false,
          "internalType": "uint256",
          "name": "startingPrice",
          "type": "uint256"
        },
        {
          "indexed": false,
          "internalType": "uint256",
          "name": "duration",
          "type": "uint256"
        }
      ],
      "name": "AuctionCreated",
      "type": "event"
    },
    {
      "anonymous": false,
      "inputs": [
        {
          "indexed": false,
          "internalType": "uint256",
          "name": "tokenId",
          "type": "uint256"
        },
        {
          "indexed": false,
          "internalType": "uint256",
          "name": "salePrice",
          "type": "uint256"
        },
        {
          "indexed": false,
          "internalType": "address",
          "name": "winner",
          "type": "address"
        }
      ],
      "name": "AuctionSuccessful",
      "type": "event"
    },
    {
      "anonymous": false,
      "inputs": [
        {
          "indexed": false,
          "internalType": "uint256",
          "name": "tokenId",
          "type": "uint256"
        },
        {
          "indexed": false,
          "internalType": "address",
          "name": "bidder",
          "type": "address"
        },
        {
          "indexed": false,
          "internalType": "uint256",
          "name": "bidAmount",
          "type": "uint256"
        }
      ],
      "name": "BidPlaced",
      "type": "event"
    },
    {
      "inputs": [
        {
          "internalType": "uint256",
          "name": "",
          "type": "uint256"
        }
      ],
      "name": "Auctions",
      "outputs": [
        {
          "internalType": "uint256",
          "name": "tokenId",
          "type": "uint256"
        },
        {
          "internalType": "address",
          "name": "seller",
          "type": "address"
        },
        {
          "internalType": "uint128",
          "name": "startingPrice",
          "type": "uint128"
        },
        {
          "internalType": "uint128",
          "name": "maxBidPrice",
          "type": "uint128"
        },
        {
          "internalType": "address",
          "name": "maxBidder",
          "type": "address"
        },
        {
          "internalType": "uint64",
          "name": "duration",
          "type": "uint64"
        },
        {
          "internalType": "uint64",
          "name": "startAt",
          "type": "uint64"
        },
        {
          "internalType": "bool",
          "name": "auctionStatus",
          "type": "bool"
        }
      ],
      "stateMutability": "view",
      "type": "function"
    },
    {
      "inputs": [],
      "name": "asset",
      "outputs": [
        {
          "internalType": "contract ERC721",
          "name": "",
          "type": "address"
        }
      ],
      "stateMutability": "view",
      "type": "function"
    },
    {
      "inputs": [],
      "name": "assetBase",
      "outputs": [
        {
          "internalType": "contract AssetBase",
          "name": "",
          "type": "address"
        }
      ],
      "stateMutability": "view",
      "type": "function"
    },
    {
      "inputs": [
        {
          "internalType": "address",
          "name": "",
          "type": "address"
        },
        {
          "internalType": "uint256",
          "name": "",
          "type": "uint256"
        }
      ],
      "name": "assetOnAuction",
      "outputs": [
        {
          "internalType": "uint256",
          "name": "",
          "type": "uint256"
        }
      ],
      "stateMutability": "view",
      "type": "function"
    },
    {
      "inputs": [
        {
          "internalType": "address",
          "name": "",
          "type": "address"
        }
      ],
      "name": "onAuctionCount",
      "outputs": [
        {
          "internalType": "uint256",
          "name": "",
          "type": "uint256"
        }
      ],
      "stateMutability": "view",
      "type": "function"
    },
    {
      "inputs": [
        {
          "internalType": "uint256",
          "name": "",
          "type": "uint256"
        }
      ],
      "name": "tokenIdToAuction",
      "outputs": [
        {
          "internalType": "uint256",
          "name": "",
          "type": "uint256"
        }
      ],
      "stateMutability": "view",
      "type": "function"
    }
  ],
  "bytecode": "0x608060405234801561001057600080fd5b506000600260146101000a81548160ff021916908315150217905550600060405180610100016040528060008152602001600073ffffffffffffffffffffffffffffffffffffffff16815260200160006fffffffffffffffffffffffffffffffff16815260200160006fffffffffffffffffffffffffffffffff168152602001600073ffffffffffffffffffffffffffffffffffffffff168152602001600067ffffffffffffffff168152602001600067ffffffffffffffff16815260200160001515815250905060038190806001815401808255809150506001900390600052602060002090600502016000909190919091506000820151816000015560208201518160010160006101000a81548173ffffffffffffffffffffffffffffffffffffffff021916908373ffffffffffffffffffffffffffffffffffffffff16021790555060408201518160020160006101000a8154816fffffffffffffffffffffffffffffffff02191690836fffffffffffffffffffffffffffffffff16021790555060608201518160020160106101000a8154816fffffffffffffffffffffffffffffffff02191690836fffffffffffffffffffffffffffffffff16021790555060808201518160030160006101000a81548173ffffffffffffffffffffffffffffffffffffffff021916908373ffffffffffffffffffffffffffffffffffffffff16021790555060a08201518160030160146101000a81548167ffffffffffffffff021916908367ffffffffffffffff16021790555060c08201518160040160006101000a81548167ffffffffffffffff021916908367ffffffffffffffff16021790555060e08201518160040160086101000a81548160ff021916908315150217905550505050610624806102aa6000396000f3fe608060405234801561001057600080fd5b50600436106100625760003560e01c806338d52e0f1461006757806399b804bd146100855780639f9a1600146100b5578063d51b2107146100d3578063e3b1475714610103578063e8cd181f14610133575b600080fd5b61006f61016a565b60405161007c919061044c565b60405180910390f35b61009f600480360381019061009a9190610363565b610190565b6040516100ac9190610467565b60405180910390f35b6100bd6101b5565b6040516100ca9190610431565b60405180910390f35b6100ed60048036038101906100e8919061033a565b6101db565b6040516100fa9190610467565b60405180910390f35b61011d6004803603810190610118919061039f565b6101f3565b60405161012a9190610467565b60405180910390f35b61014d6004803603810190610148919061039f565b61020b565b604051610161989796959493929190610482565b60405180910390f35b600160009054906101000a900473ffffffffffffffffffffffffffffffffffffffff1681565b6005602052816000526040600020602052806000526040600020600091509150505481565b600260009054906101000a900473ffffffffffffffffffffffffffffffffffffffff1681565b60066020528060005260406000206000915090505481565b60046020528060005260406000206000915090505481565b6003818154811061021b57600080fd5b90600052602060002090600502016000915090508060000154908060010160009054906101000a900473ffffffffffffffffffffffffffffffffffffffff16908060020160009054906101000a90046fffffffffffffffffffffffffffffffff16908060020160109054906101000a90046fffffffffffffffffffffffffffffffff16908060030160009054906101000a900473ffffffffffffffffffffffffffffffffffffffff16908060030160149054906101000a900467ffffffffffffffff16908060040160009054906101000a900467ffffffffffffffff16908060040160089054906101000a900460ff16905088565b60008135905061031f816105c0565b92915050565b600081359050610334816105d7565b92915050565b60006020828403121561034c57600080fd5b600061035a84828501610310565b91505092915050565b6000806040838503121561037657600080fd5b600061038485828601610310565b925050602061039585828601610325565b9150509250929050565b6000602082840312156103b157600080fd5b60006103bf84828501610325565b91505092915050565b6103d181610500565b82525050565b6103e081610512565b82525050565b6103ef81610578565b82525050565b6103fe8161059c565b82525050565b61040d8161051e565b82525050565b61041c8161055a565b82525050565b61042b81610564565b82525050565b600060208201905061044660008301846103e6565b92915050565b600060208201905061046160008301846103f5565b92915050565b600060208201905061047c6000830184610413565b92915050565b600061010082019050610498600083018b610413565b6104a5602083018a6103c8565b6104b26040830189610404565b6104bf6060830188610404565b6104cc60808301876103c8565b6104d960a0830186610422565b6104e660c0830185610422565b6104f360e08301846103d7565b9998505050505050505050565b600061050b8261053a565b9050919050565b60008115159050919050565b60006fffffffffffffffffffffffffffffffff82169050919050565b600073ffffffffffffffffffffffffffffffffffffffff82169050919050565b6000819050919050565b600067ffffffffffffffff82169050919050565b60006105838261058a565b9050919050565b60006105958261053a565b9050919050565b60006105a7826105ae565b9050919050565b60006105b98261053a565b9050919050565b6105c981610500565b81146105d457600080fd5b50565b6105e08161055a565b81146105eb57600080fd5b5056fea264697066735822122044eeb51c70875b699ac2660769c9c8df4428bef8c867189ec41c7380829d47d064736f6c63430008000033",
  "linkReferences": {},
  "deployedLinkReferences": {}
}