{
  "_format": "hh-sol-artifact-1",
  "contractName": "Pausable",
  "sourceName": "contracts/Auction/Extension/Pausable.sol",
  "abi": [
    {
      "inputs": [],
      "stateMutability": "nonpayable",
      "type": "constructor"
    },
    {
      "inputs": [],
      "name": "_pause",
      "outputs": [],
      "stateMutability": "nonpayable",
      "type": "function"
    },
    {
      "inputs": [],
      "name": "_unpause",
      "outputs": [],
      "stateMutability": "nonpayable",
      "type": "function"
    },
    {
      "inputs": [],
      "name": "owner",
      "outputs": [
        {
          "internalType": "address",
          "name": "",
          "type": "address"
        }
      ],
      "stateMutability": "view",
      "type": "function"
    },
    {
      "inputs": [],
      "name": "paused",
      "outputs": [
        {
          "internalType": "bool",
          "name": "",
          "type": "bool"
        }
      ],
      "stateMutability": "view",
      "type": "function"
    }
  ],
  "bytecode": "0x608060405234801561001057600080fd5b50336000806101000a81548173ffffffffffffffffffffffffffffffffffffffff021916908373ffffffffffffffffffffffffffffffffffffffff16021790555060008060146101000a81548160ff0219169083151502179055506103488061007a6000396000f3fe608060405234801561001057600080fd5b506004361061004c5760003560e01c8063320b2ad9146100515780635c975abb1461005b5780638da5cb5b14610079578063fc8234cb14610097575b600080fd5b6100596100a1565b005b61006361010d565b6040516100709190610268565b60405180910390f35b610081610123565b60405161008e919061024d565b60405180910390f35b61009f61014c565b005b6100a961010d565b156100e9576040517f08c379a00000000000000000000000000000000000000000000000000000000081526004016100e0906102a3565b60405180910390fd5b6001600060146101000a81548160ff02191690831515021790555042600181905550565b60008060149054906101000a900460ff16905090565b60008060009054906101000a900473ffffffffffffffffffffffffffffffffffffffff16905090565b61015461010d565b610193576040517f08c379a000000000000000000000000000000000000000000000000000000000815260040161018a90610283565b60405180910390fd5b60008060146101000a81548160ff021916908315150217905550565b6101b8816102d4565b82525050565b6101c7816102e6565b82525050565b60006101da6014836102c3565b91507f53797374656d206973204e6f74205061757365640000000000000000000000006000830152602082019050919050565b600061021a6010836102c3565b91507f53797374656d20696e20506175736564000000000000000000000000000000006000830152602082019050919050565b600060208201905061026260008301846101af565b92915050565b600060208201905061027d60008301846101be565b92915050565b6000602082019050818103600083015261029c816101cd565b9050919050565b600060208201905081810360008301526102bc8161020d565b9050919050565b600082825260208201905092915050565b60006102df826102f2565b9050919050565b60008115159050919050565b600073ffffffffffffffffffffffffffffffffffffffff8216905091905056fea2646970667358221220e3e09c940cd0a78eae72ad22cfcaade993d9b8c2225ef24a016a1180c42f4ecd64736f6c63430008000033",
  "linkReferences": {},
  "deployedLinkReferences": {}
}