{
  "_format": "hh-sol-artifact-1",
  "contractName": "AssetBase",
  "sourceName": "contracts/Asset/AssetBase.sol",
  "abi": [
    {
      "inputs": [],
      "stateMutability": "nonpayable",
      "type": "constructor"
    },
    {
      "anonymous": false,
      "inputs": [
        {
          "indexed": true,
          "internalType": "address",
          "name": "owner",
          "type": "address"
        },
        {
          "indexed": true,
          "internalType": "address",
          "name": "approved",
          "type": "address"
        },
        {
          "indexed": true,
          "internalType": "uint256",
          "name": "tokenId",
          "type": "uint256"
        }
      ],
      "name": "Approval",
      "type": "event"
    },
    {
      "anonymous": false,
      "inputs": [
        {
          "indexed": true,
          "internalType": "address",
          "name": "owner",
          "type": "address"
        },
        {
          "indexed": true,
          "internalType": "address",
          "name": "operator",
          "type": "address"
        },
        {
          "indexed": false,
          "internalType": "bool",
          "name": "approved",
          "type": "bool"
        }
      ],
      "name": "ApprovalForAll",
      "type": "event"
    },
    {
      "anonymous": false,
      "inputs": [
        {
          "indexed": true,
          "internalType": "address",
          "name": "from",
          "type": "address"
        },
        {
          "indexed": true,
          "internalType": "uint256",
          "name": "tokenID",
          "type": "uint256"
        }
      ],
      "name": "Burned",
      "type": "event"
    },
    {
      "anonymous": false,
      "inputs": [
        {
          "indexed": true,
          "internalType": "address",
          "name": "from",
          "type": "address"
        },
        {
          "indexed": true,
          "internalType": "uint256",
          "name": "tokenID",
          "type": "uint256"
        }
      ],
      "name": "Minted",
      "type": "event"
    },
    {
      "anonymous": false,
      "inputs": [
        {
          "indexed": true,
          "internalType": "address",
          "name": "from",
          "type": "address"
        },
        {
          "indexed": true,
          "internalType": "address",
          "name": "to",
          "type": "address"
        },
        {
          "indexed": true,
          "internalType": "uint256",
          "name": "tokenId",
          "type": "uint256"
        }
      ],
      "name": "Transfer",
      "type": "event"
    },
    {
      "inputs": [
        {
          "internalType": "uint256",
          "name": "_tokenId",
          "type": "uint256"
        }
      ],
      "name": "Approve",
      "outputs": [],
      "stateMutability": "nonpayable",
      "type": "function"
    },
    {
      "inputs": [
        {
          "internalType": "uint256",
          "name": "",
          "type": "uint256"
        }
      ],
      "name": "Assets",
      "outputs": [
        {
          "internalType": "uint256",
          "name": "tokenId",
          "type": "uint256"
        },
        {
          "internalType": "address",
          "name": "owner",
          "type": "address"
        }
      ],
      "stateMutability": "view",
      "type": "function"
    },
    {
      "inputs": [
        {
          "internalType": "uint256",
          "name": "tokenId",
          "type": "uint256"
        },
        {
          "internalType": "address",
          "name": "owner",
          "type": "address"
        }
      ],
      "name": "Escrowed",
      "outputs": [],
      "stateMutability": "nonpayable",
      "type": "function"
    },
    {
      "inputs": [
        {
          "internalType": "uint256",
          "name": "tokenId",
          "type": "uint256"
        },
        {
          "internalType": "address",
          "name": "owner",
          "type": "address"
        }
      ],
      "name": "Transfered",
      "outputs": [],
      "stateMutability": "nonpayable",
      "type": "function"
    },
    {
      "inputs": [
        {
          "internalType": "address",
          "name": "",
          "type": "address"
        }
      ],
      "name": "_balances",
      "outputs": [
        {
          "internalType": "uint256",
          "name": "",
          "type": "uint256"
        }
      ],
      "stateMutability": "view",
      "type": "function"
    },
    {
      "inputs": [],
      "name": "_name",
      "outputs": [
        {
          "internalType": "string",
          "name": "",
          "type": "string"
        }
      ],
      "stateMutability": "view",
      "type": "function"
    },
    {
      "inputs": [
        {
          "internalType": "address",
          "name": "",
          "type": "address"
        },
        {
          "internalType": "address",
          "name": "",
          "type": "address"
        }
      ],
      "name": "_operatorApprovals",
      "outputs": [
        {
          "internalType": "bool",
          "name": "",
          "type": "bool"
        }
      ],
      "stateMutability": "view",
      "type": "function"
    },
    {
      "inputs": [
        {
          "internalType": "uint256",
          "name": "",
          "type": "uint256"
        }
      ],
      "name": "_owners",
      "outputs": [
        {
          "internalType": "address",
          "name": "",
          "type": "address"
        }
      ],
      "stateMutability": "view",
      "type": "function"
    },
    {
      "inputs": [],
      "name": "_symbol",
      "outputs": [
        {
          "internalType": "string",
          "name": "",
          "type": "string"
        }
      ],
      "stateMutability": "view",
      "type": "function"
    },
    {
      "inputs": [
        {
          "internalType": "uint256",
          "name": "",
          "type": "uint256"
        }
      ],
      "name": "_tokenApprovals",
      "outputs": [
        {
          "internalType": "address",
          "name": "",
          "type": "address"
        }
      ],
      "stateMutability": "view",
      "type": "function"
    },
    {
      "inputs": [
        {
          "internalType": "uint256",
          "name": "",
          "type": "uint256"
        }
      ],
      "name": "_tokenURIs",
      "outputs": [
        {
          "internalType": "string",
          "name": "",
          "type": "string"
        }
      ],
      "stateMutability": "view",
      "type": "function"
    },
    {
      "inputs": [
        {
          "internalType": "address",
          "name": "to",
          "type": "address"
        },
        {
          "internalType": "uint256",
          "name": "tokenId",
          "type": "uint256"
        }
      ],
      "name": "approve",
      "outputs": [],
      "stateMutability": "nonpayable",
      "type": "function"
    },
    {
      "inputs": [],
      "name": "auction",
      "outputs": [
        {
          "internalType": "contract AuctionBase",
          "name": "",
          "type": "address"
        }
      ],
      "stateMutability": "view",
      "type": "function"
    },
    {
      "inputs": [
        {
          "internalType": "address",
          "name": "owner",
          "type": "address"
        }
      ],
      "name": "balanceOf",
      "outputs": [
        {
          "internalType": "uint256",
          "name": "",
          "type": "uint256"
        }
      ],
      "stateMutability": "view",
      "type": "function"
    },
    {
      "inputs": [],
      "name": "ceoAddress",
      "outputs": [
        {
          "internalType": "address",
          "name": "",
          "type": "address"
        }
      ],
      "stateMutability": "view",
      "type": "function"
    },
    {
      "inputs": [],
      "name": "cfoAddress",
      "outputs": [
        {
          "internalType": "address",
          "name": "",
          "type": "address"
        }
      ],
      "stateMutability": "view",
      "type": "function"
    },
    {
      "inputs": [
        {
          "internalType": "uint256",
          "name": "tokenId",
          "type": "uint256"
        }
      ],
      "name": "getApproved",
      "outputs": [
        {
          "internalType": "address",
          "name": "",
          "type": "address"
        }
      ],
      "stateMutability": "view",
      "type": "function"
    },
    {
      "inputs": [
        {
          "internalType": "address",
          "name": "owner",
          "type": "address"
        },
        {
          "internalType": "address",
          "name": "operator",
          "type": "address"
        }
      ],
      "name": "isApprovedForAll",
      "outputs": [
        {
          "internalType": "bool",
          "name": "",
          "type": "bool"
        }
      ],
      "stateMutability": "view",
      "type": "function"
    },
    {
      "inputs": [],
      "name": "name",
      "outputs": [
        {
          "internalType": "string",
          "name": "",
          "type": "string"
        }
      ],
      "stateMutability": "view",
      "type": "function"
    },
    {
      "inputs": [
        {
          "internalType": "uint256",
          "name": "tokenId",
          "type": "uint256"
        }
      ],
      "name": "ownerOf",
      "outputs": [
        {
          "internalType": "address",
          "name": "",
          "type": "address"
        }
      ],
      "stateMutability": "view",
      "type": "function"
    },
    {
      "inputs": [
        {
          "internalType": "address",
          "name": "",
          "type": "address"
        },
        {
          "internalType": "uint256",
          "name": "",
          "type": "uint256"
        }
      ],
      "name": "ownsToken",
      "outputs": [
        {
          "internalType": "uint256",
          "name": "",
          "type": "uint256"
        }
      ],
      "stateMutability": "view",
      "type": "function"
    },
    {
      "inputs": [],
      "name": "paused",
      "outputs": [
        {
          "internalType": "bool",
          "name": "",
          "type": "bool"
        }
      ],
      "stateMutability": "view",
      "type": "function"
    },
    {
      "inputs": [
        {
          "internalType": "address",
          "name": "from",
          "type": "address"
        },
        {
          "internalType": "address",
          "name": "to",
          "type": "address"
        },
        {
          "internalType": "uint256",
          "name": "tokenId",
          "type": "uint256"
        }
      ],
      "name": "safeTransferFrom",
      "outputs": [],
      "stateMutability": "nonpayable",
      "type": "function"
    },
    {
      "inputs": [
        {
          "internalType": "address",
          "name": "from",
          "type": "address"
        },
        {
          "internalType": "address",
          "name": "to",
          "type": "address"
        },
        {
          "internalType": "uint256",
          "name": "tokenId",
          "type": "uint256"
        },
        {
          "internalType": "bytes",
          "name": "_data",
          "type": "bytes"
        }
      ],
      "name": "safeTransferFrom",
      "outputs": [],
      "stateMutability": "nonpayable",
      "type": "function"
    },
    {
      "inputs": [
        {
          "internalType": "address",
          "name": "operator",
          "type": "address"
        },
        {
          "internalType": "bool",
          "name": "approved",
          "type": "bool"
        }
      ],
      "name": "setApprovalForAll",
      "outputs": [],
      "stateMutability": "nonpayable",
      "type": "function"
    },
    {
      "inputs": [
        {
          "internalType": "bytes4",
          "name": "interfaceId",
          "type": "bytes4"
        }
      ],
      "name": "supportsInterface",
      "outputs": [
        {
          "internalType": "bool",
          "name": "",
          "type": "bool"
        }
      ],
      "stateMutability": "view",
      "type": "function"
    },
    {
      "inputs": [],
      "name": "symbol",
      "outputs": [
        {
          "internalType": "string",
          "name": "",
          "type": "string"
        }
      ],
      "stateMutability": "view",
      "type": "function"
    },
    {
      "inputs": [
        {
          "internalType": "uint256",
          "name": "tokenId",
          "type": "uint256"
        }
      ],
      "name": "tokenURI",
      "outputs": [
        {
          "internalType": "string",
          "name": "",
          "type": "string"
        }
      ],
      "stateMutability": "view",
      "type": "function"
    },
    {
      "inputs": [
        {
          "internalType": "address",
          "name": "from",
          "type": "address"
        },
        {
          "internalType": "address",
          "name": "to",
          "type": "address"
        },
        {
          "internalType": "uint256",
          "name": "tokenId",
          "type": "uint256"
        }
      ],
      "name": "transferFrom",
      "outputs": [],
      "stateMutability": "nonpayable",
      "type": "function"
    }
  ],
  "bytecode": "0x60806040526000600160146101000a81548160ff0219169083151502179055503480156200002c57600080fd5b506040518060400160405280600581526020017f41535345540000000000000000000000000000000000000000000000000000008152506040518060400160405280600381526020017f4153540000000000000000000000000000000000000000000000000000000000815250336000806101000a81548173ffffffffffffffffffffffffffffffffffffffff021916908373ffffffffffffffffffffffffffffffffffffffff16021790555033600160006101000a81548173ffffffffffffffffffffffffffffffffffffffff021916908373ffffffffffffffffffffffffffffffffffffffff160217905550816002908051906020019062000132929190620001fe565b5080600390805190602001906200014b929190620001fe565b505050600b6040518060400160405280600081526020013073ffffffffffffffffffffffffffffffffffffffff1681525090806001815401808255809150506001900390600052602060002090600202016000909190919091506000820151816000015560208201518160010160006101000a81548173ffffffffffffffffffffffffffffffffffffffff021916908373ffffffffffffffffffffffffffffffffffffffff160217905550505062000313565b8280546200020c90620002ae565b90600052602060002090601f0160209004810192826200023057600085556200027c565b82601f106200024b57805160ff19168380011785556200027c565b828001600101855582156200027c579182015b828111156200027b5782518255916020019190600101906200025e565b5b5090506200028b91906200028f565b5090565b5b80821115620002aa57600081600090555060010162000290565b5090565b60006002820490506001821680620002c757607f821691505b60208210811415620002de57620002dd620002e4565b5b50919050565b7f4e487b7100000000000000000000000000000000000000000000000000000000600052602260045260246000fd5b612bcf80620003236000396000f3fe608060405234801561001057600080fd5b50600436106101cf5760003560e01c806370a0823111610104578063a22cb465116100a2578063c87b56dd11610071578063c87b56dd14610567578063d28d885214610597578063e985e9c5146105b5578063edc3bc3f146105e5576101cf565b8063a22cb465146104e1578063a7cc0136146104fd578063b09f12661461052d578063b88d4fde1461054b576101cf565b806383c6576e116100de57806383c6576e1461044757806395d89b4114610463578063992924a6146104815780639ab0cd88146104b1576101cf565b806370a08231146103dd57806377b92c071461040d5780637d9f6db514610429576101cf565b806323b872dd116101715780634fb2724a1161014b5780634fb2724a146103435780635c975abb1461035f5780636352211e1461037d5780636ebcf607146103ad576101cf565b806323b872dd146102da57806342842e0e146102f65780634b4a80ba14610312576101cf565b8063081812fc116101ad578063081812fc14610240578063095ea7b3146102705780630a0f81681461028c5780630bb78ec1146102aa576101cf565b806301ffc9a7146101d45780630519ce791461020457806306fdde0314610222575b600080fd5b6101ee60048036038101906101e99190611edd565b610615565b6040516101fb91906125e0565b60405180910390f35b61020c61067f565b6040516102199190612579565b60405180910390f35b61022a6106a5565b6040516102379190612616565b60405180910390f35b61025a60048036038101906102559190611f2f565b610737565b6040516102679190612579565b60405180910390f35b61028a60048036038101906102859190611ea1565b6107bc565b005b6102946108c6565b6040516102a19190612579565b60405180910390f35b6102c460048036038101906102bf9190611f2f565b6108ea565b6040516102d19190612616565b60405180910390f35b6102f460048036038101906102ef9190611d9b565b61098a565b005b610310600480360381019061030b9190611d9b565b6109e3565b005b61032c60048036038101906103279190611f2f565b610a03565b60405161033a9291906127f3565b60405180910390f35b61035d60048036038101906103589190611f58565b610a57565b005b610367610b48565b60405161037491906125e0565b60405180910390f35b61039760048036038101906103929190611f2f565b610b5b565b6040516103a49190612579565b60405180910390f35b6103c760048036038101906103c29190611d36565b610c0d565b6040516103d491906127d8565b60405180910390f35b6103f760048036038101906103f29190611d36565b610c25565b60405161040491906127d8565b60405180910390f35b61042760048036038101906104229190611f2f565b610cdd565b005b610431610d4c565b60405161043e91906125fb565b60405180910390f35b610461600480360381019061045c9190611f58565b610d72565b005b61046b611002565b6040516104789190612616565b60405180910390f35b61049b60048036038101906104969190611f2f565b611094565b6040516104a89190612579565b60405180910390f35b6104cb60048036038101906104c69190611ea1565b6110c7565b6040516104d891906127d8565b60405180910390f35b6104fb60048036038101906104f69190611e65565b6110ec565b005b61051760048036038101906105129190611f2f565b611258565b6040516105249190612579565b60405180910390f35b61053561128b565b6040516105429190612616565b60405180910390f35b61056560048036038101906105609190611dea565b611319565b005b610581600480360381019061057c9190611f2f565b611374565b60405161058e9190612616565b60405180910390f35b61059f6114aa565b6040516105ac9190612616565b60405180910390f35b6105cf60048036038101906105ca9190611d5f565b611538565b6040516105dc91906125e0565b60405180910390f35b6105ff60048036038101906105fa9190611d5f565b6115cc565b60405161060c91906125e0565b60405180910390f35b60007f01ffc9a7000000000000000000000000000000000000000000000000000000007bffffffffffffffffffffffffffffffffffffffffffffffffffffffff1916827bffffffffffffffffffffffffffffffffffffffffffffffffffffffff1916149050919050565b600160009054906101000a900473ffffffffffffffffffffffffffffffffffffffff1681565b6060600280546106b490612a24565b80601f01602080910402602001604051908101604052809291908181526020018280546106e090612a24565b801561072d5780601f106107025761010080835404028352916020019161072d565b820191906000526020600020905b81548152906001019060200180831161071057829003601f168201915b5050505050905090565b6000610742826115fb565b610781576040517f08c379a000000000000000000000000000000000000000000000000000000000815260040161077890612758565b60405180910390fd5b6006600083815260200190815260200160002060009054906101000a900473ffffffffffffffffffffffffffffffffffffffff169050919050565b60006107c782610b5b565b90508073ffffffffffffffffffffffffffffffffffffffff168373ffffffffffffffffffffffffffffffffffffffff161415610838576040517f08c379a000000000000000000000000000000000000000000000000000000000815260040161082f90612798565b60405180910390fd5b8073ffffffffffffffffffffffffffffffffffffffff163373ffffffffffffffffffffffffffffffffffffffff16148061087857506108778133611538565b5b6108b7576040517f08c379a00000000000000000000000000000000000000000000000000000000081526004016108ae906126d8565b60405180910390fd5b6108c18383611667565b505050565b60008054906101000a900473ffffffffffffffffffffffffffffffffffffffff1681565b6008602052806000526040600020600091509050805461090990612a24565b80601f016020809104026020016040519081016040528092919081815260200182805461093590612a24565b80156109825780601f1061095757610100808354040283529160200191610982565b820191906000526020600020905b81548152906001019060200180831161096557829003601f168201915b505050505081565b6109943382611720565b6109d3576040517f08c379a00000000000000000000000000000000000000000000000000000000081526004016109ca906127b8565b60405180910390fd5b6109de8383836117fe565b505050565b6109fe83838360405180602001604052806000815250611319565b505050565b600b8181548110610a1357600080fd5b90600052602060002090600202016000915090508060000154908060010160009054906101000a900473ffffffffffffffffffffffffffffffffffffffff16905082565b600a60009054906101000a900473ffffffffffffffffffffffffffffffffffffffff1673ffffffffffffffffffffffffffffffffffffffff163373ffffffffffffffffffffffffffffffffffffffff1614610ae7576040517f08c379a0000000000000000000000000000000000000000000000000000000008152600401610ade90612638565b60405180910390fd5b81600c60008373ffffffffffffffffffffffffffffffffffffffff1673ffffffffffffffffffffffffffffffffffffffff1681526020019081526020016000206000610b3284610c25565b8152602001908152602001600020819055505050565b600160149054906101000a900460ff1681565b6000806004600084815260200190815260200160002060009054906101000a900473ffffffffffffffffffffffffffffffffffffffff169050600073ffffffffffffffffffffffffffffffffffffffff168173ffffffffffffffffffffffffffffffffffffffff161415610c04576040517f08c379a0000000000000000000000000000000000000000000000000000000008152600401610bfb90612718565b60405180910390fd5b80915050919050565b60056020528060005260406000206000915090505481565b60008073ffffffffffffffffffffffffffffffffffffffff168273ffffffffffffffffffffffffffffffffffffffff161415610c96576040517f08c379a0000000000000000000000000000000000000000000000000000000008152600401610c8d906126f8565b60405180910390fd5b600560008373ffffffffffffffffffffffffffffffffffffffff1673ffffffffffffffffffffffffffffffffffffffff168152602001908152602001600020549050919050565b610ce681610b5b565b73ffffffffffffffffffffffffffffffffffffffff163373ffffffffffffffffffffffffffffffffffffffff1614610d1d57600080fd5b610d49600a60009054906101000a900473ffffffffffffffffffffffffffffffffffffffff16826107bc565b50565b600a60009054906101000a900473ffffffffffffffffffffffffffffffffffffffff1681565b600a60009054906101000a900473ffffffffffffffffffffffffffffffffffffffff1673ffffffffffffffffffffffffffffffffffffffff163373ffffffffffffffffffffffffffffffffffffffff1614610e02576040517f08c379a0000000000000000000000000000000000000000000000000000000008152600401610df990612638565b60405180910390fd5b6000610e0d82610c25565b90506000600182610e1e91906128c0565b90506000821415610e8357600c60008473ffffffffffffffffffffffffffffffffffffffff1673ffffffffffffffffffffffffffffffffffffffff16815260200190815260200160002060006001815260200190815260200160002060009055610ffc565b6000600190505b818111610ffa5784600c60008673ffffffffffffffffffffffffffffffffffffffff1673ffffffffffffffffffffffffffffffffffffffff1681526020019081526020016000206000838152602001908152602001600020541415610fe757600c60008573ffffffffffffffffffffffffffffffffffffffff1673ffffffffffffffffffffffffffffffffffffffff168152602001908152602001600020600083815260200190815260200160002054600c60008673ffffffffffffffffffffffffffffffffffffffff1673ffffffffffffffffffffffffffffffffffffffff168152602001908152602001600020600083815260200190815260200160002081905550600c60008573ffffffffffffffffffffffffffffffffffffffff1673ffffffffffffffffffffffffffffffffffffffff168152602001908152602001600020600083815260200190815260200160002060009055610ffa565b8080610ff290612a56565b915050610e8a565b505b50505050565b60606003805461101190612a24565b80601f016020809104026020016040519081016040528092919081815260200182805461103d90612a24565b801561108a5780601f1061105f5761010080835404028352916020019161108a565b820191906000526020600020905b81548152906001019060200180831161106d57829003601f168201915b5050505050905090565b60046020528060005260406000206000915054906101000a900473ffffffffffffffffffffffffffffffffffffffff1681565b600c602052816000526040600020602052806000526040600020600091509150505481565b3373ffffffffffffffffffffffffffffffffffffffff168273ffffffffffffffffffffffffffffffffffffffff16141561115b576040517f08c379a000000000000000000000000000000000000000000000000000000000815260040161115290612698565b60405180910390fd5b80600760003373ffffffffffffffffffffffffffffffffffffffff1673ffffffffffffffffffffffffffffffffffffffff16815260200190815260200160002060008473ffffffffffffffffffffffffffffffffffffffff1673ffffffffffffffffffffffffffffffffffffffff16815260200190815260200160002060006101000a81548160ff0219169083151502179055508173ffffffffffffffffffffffffffffffffffffffff163373ffffffffffffffffffffffffffffffffffffffff167f17307eab39ab6107e8899845ad3d59bd9653f200f220920489ca2b5937696c318360405161124c91906125e0565b60405180910390a35050565b60066020528060005260406000206000915054906101000a900473ffffffffffffffffffffffffffffffffffffffff1681565b6003805461129890612a24565b80601f01602080910402602001604051908101604052809291908181526020018280546112c490612a24565b80156113115780601f106112e657610100808354040283529160200191611311565b820191906000526020600020905b8154815290600101906020018083116112f457829003601f168201915b505050505081565b6113233383611720565b611362576040517f08c379a0000000000000000000000000000000000000000000000000000000008152600401611359906127b8565b60405180910390fd5b61136e84848484611a4f565b50505050565b606061137f826115fb565b6113be576040517f08c379a00000000000000000000000000000000000000000000000000000000081526004016113b590612738565b60405180910390fd5b60006008600084815260200190815260200160002080546113de90612a24565b80601f016020809104026020016040519081016040528092919081815260200182805461140a90612a24565b80156114575780601f1061142c57610100808354040283529160200191611457565b820191906000526020600020905b81548152906001019060200180831161143a57829003601f168201915b505050505090506000611468611aab565b905060008151141561147e5781925050506114a5565b8082604051602001611491929190612555565b604051602081830303815290604052925050505b919050565b600280546114b790612a24565b80601f01602080910402602001604051908101604052809291908181526020018280546114e390612a24565b80156115305780601f1061150557610100808354040283529160200191611530565b820191906000526020600020905b81548152906001019060200180831161151357829003601f168201915b505050505081565b6000600760008473ffffffffffffffffffffffffffffffffffffffff1673ffffffffffffffffffffffffffffffffffffffff16815260200190815260200160002060008373ffffffffffffffffffffffffffffffffffffffff1673ffffffffffffffffffffffffffffffffffffffff16815260200190815260200160002060009054906101000a900460ff16905092915050565b60076020528160005260406000206020528060005260406000206000915091509054906101000a900460ff1681565b60008073ffffffffffffffffffffffffffffffffffffffff166004600084815260200190815260200160002060009054906101000a900473ffffffffffffffffffffffffffffffffffffffff1673ffffffffffffffffffffffffffffffffffffffff1614159050919050565b816006600083815260200190815260200160002060006101000a81548173ffffffffffffffffffffffffffffffffffffffff021916908373ffffffffffffffffffffffffffffffffffffffff160217905550808273ffffffffffffffffffffffffffffffffffffffff166116da83610b5b565b73ffffffffffffffffffffffffffffffffffffffff167f8c5be1e5ebec7d5bd14f71427d1e84f3dd0314c0f7b2291e5b200ac8c7c3b92560405160405180910390a45050565b600061172b826115fb565b61176a576040517f08c379a0000000000000000000000000000000000000000000000000000000008152600401611761906126b8565b60405180910390fd5b600061177583610b5b565b90508073ffffffffffffffffffffffffffffffffffffffff168473ffffffffffffffffffffffffffffffffffffffff1614806117e457508373ffffffffffffffffffffffffffffffffffffffff166117cc84610737565b73ffffffffffffffffffffffffffffffffffffffff16145b806117f557506117f48185611538565b5b91505092915050565b8273ffffffffffffffffffffffffffffffffffffffff1661181e82610b5b565b73ffffffffffffffffffffffffffffffffffffffff1614611874576040517f08c379a000000000000000000000000000000000000000000000000000000000815260040161186b90612778565b60405180910390fd5b600073ffffffffffffffffffffffffffffffffffffffff168273ffffffffffffffffffffffffffffffffffffffff1614156118e4576040517f08c379a00000000000000000000000000000000000000000000000000000000081526004016118db90612678565b60405180910390fd5b6118ef600082611667565b6001600560008573ffffffffffffffffffffffffffffffffffffffff1673ffffffffffffffffffffffffffffffffffffffff168152602001908152602001600020600082825461193f9190612916565b925050819055506001600560008473ffffffffffffffffffffffffffffffffffffffff1673ffffffffffffffffffffffffffffffffffffffff168152602001908152602001600020600082825461199691906128c0565b92505081905550816004600083815260200190815260200160002060006101000a81548173ffffffffffffffffffffffffffffffffffffffff021916908373ffffffffffffffffffffffffffffffffffffffff160217905550808273ffffffffffffffffffffffffffffffffffffffff168473ffffffffffffffffffffffffffffffffffffffff167fddf252ad1be2c89b69c2b068fc378daa952ba7f163c4a11628f55a4df523b3ef60405160405180910390a4505050565b611a5a8484846117fe565b611a6684848484611ac2565b611aa5576040517f08c379a0000000000000000000000000000000000000000000000000000000008152600401611a9c90612658565b60405180910390fd5b50505050565b606060405180602001604052806000815250905090565b6000611ae38473ffffffffffffffffffffffffffffffffffffffff16611c52565b15611c45578373ffffffffffffffffffffffffffffffffffffffff1663150b7a02338786866040518563ffffffff1660e01b8152600401611b279493929190612594565b602060405180830381600087803b158015611b4157600080fd5b505af1925050508015611b7257506040513d601f19601f82011682018060405250810190611b6f9190611f06565b60015b611bf5573d8060008114611ba2576040519150601f19603f3d011682016040523d82523d6000602084013e611ba7565b606091505b50600081511415611bed576040517f08c379a0000000000000000000000000000000000000000000000000000000008152600401611be490612658565b60405180910390fd5b805181602001fd5b63150b7a0260e01b7bffffffffffffffffffffffffffffffffffffffffffffffffffffffff1916817bffffffffffffffffffffffffffffffffffffffffffffffffffffffff191614915050611c4a565b600190505b949350505050565b600080823b905060008111915050919050565b6000611c78611c738461284d565b61281c565b905082815260208101848484011115611c9057600080fd5b611c9b8482856129e2565b509392505050565b600081359050611cb281612b3d565b92915050565b600081359050611cc781612b54565b92915050565b600081359050611cdc81612b6b565b92915050565b600081519050611cf181612b6b565b92915050565b600082601f830112611d0857600080fd5b8135611d18848260208601611c65565b91505092915050565b600081359050611d3081612b82565b92915050565b600060208284031215611d4857600080fd5b6000611d5684828501611ca3565b91505092915050565b60008060408385031215611d7257600080fd5b6000611d8085828601611ca3565b9250506020611d9185828601611ca3565b9150509250929050565b600080600060608486031215611db057600080fd5b6000611dbe86828701611ca3565b9350506020611dcf86828701611ca3565b9250506040611de086828701611d21565b9150509250925092565b60008060008060808587031215611e0057600080fd5b6000611e0e87828801611ca3565b9450506020611e1f87828801611ca3565b9350506040611e3087828801611d21565b925050606085013567ffffffffffffffff811115611e4d57600080fd5b611e5987828801611cf7565b91505092959194509250565b60008060408385031215611e7857600080fd5b6000611e8685828601611ca3565b9250506020611e9785828601611cb8565b9150509250929050565b60008060408385031215611eb457600080fd5b6000611ec285828601611ca3565b9250506020611ed385828601611d21565b9150509250929050565b600060208284031215611eef57600080fd5b6000611efd84828501611ccd565b91505092915050565b600060208284031215611f1857600080fd5b6000611f2684828501611ce2565b91505092915050565b600060208284031215611f4157600080fd5b6000611f4f84828501611d21565b91505092915050565b60008060408385031215611f6b57600080fd5b6000611f7985828601611d21565b9250506020611f8a85828601611ca3565b9150509250929050565b611f9d8161294a565b82525050565b611fac8161295c565b82525050565b6000611fbd8261287d565b611fc78185612893565b9350611fd78185602086016129f1565b611fe081612b2c565b840191505092915050565b611ff4816129be565b82525050565b600061200582612888565b61200f81856128a4565b935061201f8185602086016129f1565b61202881612b2c565b840191505092915050565b600061203e82612888565b61204881856128b5565b93506120588185602086016129f1565b80840191505092915050565b60006120716020836128a4565b91507f4f6e6c792041756374696f6e20436f6e74726163742063616e206163636573736000830152602082019050919050565b60006120b16032836128a4565b91507f4552433732313a207472616e7366657220746f206e6f6e20455243373231526560008301527f63656976657220696d706c656d656e74657200000000000000000000000000006020830152604082019050919050565b60006121176024836128a4565b91507f4552433732313a207472616e7366657220746f20746865207a65726f2061646460008301527f72657373000000000000000000000000000000000000000000000000000000006020830152604082019050919050565b600061217d6019836128a4565b91507f4552433732313a20617070726f766520746f2063616c6c6572000000000000006000830152602082019050919050565b60006121bd602c836128a4565b91507f4552433732313a206f70657261746f7220717565727920666f72206e6f6e657860008301527f697374656e7420746f6b656e00000000000000000000000000000000000000006020830152604082019050919050565b60006122236038836128a4565b91507f4552433732313a20617070726f76652063616c6c6572206973206e6f74206f7760008301527f6e6572206e6f7220617070726f76656420666f7220616c6c00000000000000006020830152604082019050919050565b6000612289602a836128a4565b91507f4552433732313a2062616c616e636520717565727920666f7220746865207a6560008301527f726f2061646472657373000000000000000000000000000000000000000000006020830152604082019050919050565b60006122ef602a836128a4565b91507f4552433732313a204f776e657220717565727920666f72206e6f6e2d6578697360008301527f74656e7420746f6b656e000000000000000000000000000000000000000000006020830152604082019050919050565b60006123556031836128a4565b91507f45524337323155524953746f726167653a2055524920717565727920666f722060008301527f6e6f6e6578697374656e7420746f6b656e0000000000000000000000000000006020830152604082019050919050565b60006123bb602c836128a4565b91507f4552433732313a20617070726f76656420717565727920666f72206e6f6e657860008301527f697374656e7420746f6b656e00000000000000000000000000000000000000006020830152604082019050919050565b60006124216029836128a4565b91507f4552433732313a207472616e73666572206f6620746f6b656e2074686174206960008301527f73206e6f74206f776e00000000000000000000000000000000000000000000006020830152604082019050919050565b60006124876021836128a4565b91507f4552433732313a20617070726f76616c20746f2063757272656e74206f776e6560008301527f72000000000000000000000000000000000000000000000000000000000000006020830152604082019050919050565b60006124ed6031836128a4565b91507f4552433732313a207472616e736665722063616c6c6572206973206e6f74206f60008301527f776e6572206e6f7220617070726f7665640000000000000000000000000000006020830152604082019050919050565b61254f816129b4565b82525050565b60006125618285612033565b915061256d8284612033565b91508190509392505050565b600060208201905061258e6000830184611f94565b92915050565b60006080820190506125a96000830187611f94565b6125b66020830186611f94565b6125c36040830185612546565b81810360608301526125d58184611fb2565b905095945050505050565b60006020820190506125f56000830184611fa3565b92915050565b60006020820190506126106000830184611feb565b92915050565b600060208201905081810360008301526126308184611ffa565b905092915050565b6000602082019050818103600083015261265181612064565b9050919050565b60006020820190508181036000830152612671816120a4565b9050919050565b600060208201905081810360008301526126918161210a565b9050919050565b600060208201905081810360008301526126b181612170565b9050919050565b600060208201905081810360008301526126d1816121b0565b9050919050565b600060208201905081810360008301526126f181612216565b9050919050565b600060208201905081810360008301526127118161227c565b9050919050565b60006020820190508181036000830152612731816122e2565b9050919050565b6000602082019050818103600083015261275181612348565b9050919050565b60006020820190508181036000830152612771816123ae565b9050919050565b6000602082019050818103600083015261279181612414565b9050919050565b600060208201905081810360008301526127b18161247a565b9050919050565b600060208201905081810360008301526127d1816124e0565b9050919050565b60006020820190506127ed6000830184612546565b92915050565b60006040820190506128086000830185612546565b6128156020830184611f94565b9392505050565b6000604051905081810181811067ffffffffffffffff8211171561284357612842612afd565b5b8060405250919050565b600067ffffffffffffffff82111561286857612867612afd565b5b601f19601f8301169050602081019050919050565b600081519050919050565b600081519050919050565b600082825260208201905092915050565b600082825260208201905092915050565b600081905092915050565b60006128cb826129b4565b91506128d6836129b4565b9250827fffffffffffffffffffffffffffffffffffffffffffffffffffffffffffffffff0382111561290b5761290a612a9f565b5b828201905092915050565b6000612921826129b4565b915061292c836129b4565b92508282101561293f5761293e612a9f565b5b828203905092915050565b600061295582612994565b9050919050565b60008115159050919050565b60007fffffffff0000000000000000000000000000000000000000000000000000000082169050919050565b600073ffffffffffffffffffffffffffffffffffffffff82169050919050565b6000819050919050565b60006129c9826129d0565b9050919050565b60006129db82612994565b9050919050565b82818337600083830152505050565b60005b83811015612a0f5780820151818401526020810190506129f4565b83811115612a1e576000848401525b50505050565b60006002820490506001821680612a3c57607f821691505b60208210811415612a5057612a4f612ace565b5b50919050565b6000612a61826129b4565b91507fffffffffffffffffffffffffffffffffffffffffffffffffffffffffffffffff821415612a9457612a93612a9f565b5b600182019050919050565b7f4e487b7100000000000000000000000000000000000000000000000000000000600052601160045260246000fd5b7f4e487b7100000000000000000000000000000000000000000000000000000000600052602260045260246000fd5b7f4e487b7100000000000000000000000000000000000000000000000000000000600052604160045260246000fd5b6000601f19601f8301169050919050565b612b468161294a565b8114612b5157600080fd5b50565b612b5d8161295c565b8114612b6857600080fd5b50565b612b7481612968565b8114612b7f57600080fd5b50565b612b8b816129b4565b8114612b9657600080fd5b5056fea264697066735822122049cc2dfd16c84096b2e4f24db46cd1b7a7bfb4e06ba3dcab53fe1c15addce64a64736f6c63430008000033",
  "linkReferences": {},
  "deployedLinkReferences": {}
}