{
  "_format": "hh-sol-artifact-1",
  "contractName": "ERC721",
  "sourceName": "contracts/Asset/ERC721/ERC721.sol",
  "abi": [
    {
      "inputs": [
        {
          "internalType": "string",
          "name": "name_",
          "type": "string"
        },
        {
          "internalType": "string",
          "name": "symbol_",
          "type": "string"
        }
      ],
      "stateMutability": "nonpayable",
      "type": "constructor"
    },
    {
      "anonymous": false,
      "inputs": [
        {
          "indexed": true,
          "internalType": "address",
          "name": "owner",
          "type": "address"
        },
        {
          "indexed": true,
          "internalType": "address",
          "name": "approved",
          "type": "address"
        },
        {
          "indexed": true,
          "internalType": "uint256",
          "name": "tokenId",
          "type": "uint256"
        }
      ],
      "name": "Approval",
      "type": "event"
    },
    {
      "anonymous": false,
      "inputs": [
        {
          "indexed": true,
          "internalType": "address",
          "name": "owner",
          "type": "address"
        },
        {
          "indexed": true,
          "internalType": "address",
          "name": "operator",
          "type": "address"
        },
        {
          "indexed": false,
          "internalType": "bool",
          "name": "approved",
          "type": "bool"
        }
      ],
      "name": "ApprovalForAll",
      "type": "event"
    },
    {
      "anonymous": false,
      "inputs": [
        {
          "indexed": true,
          "internalType": "address",
          "name": "from",
          "type": "address"
        },
        {
          "indexed": true,
          "internalType": "address",
          "name": "to",
          "type": "address"
        },
        {
          "indexed": true,
          "internalType": "uint256",
          "name": "tokenId",
          "type": "uint256"
        }
      ],
      "name": "Transfer",
      "type": "event"
    },
    {
      "inputs": [
        {
          "internalType": "address",
          "name": "",
          "type": "address"
        }
      ],
      "name": "_balances",
      "outputs": [
        {
          "internalType": "uint256",
          "name": "",
          "type": "uint256"
        }
      ],
      "stateMutability": "view",
      "type": "function"
    },
    {
      "inputs": [],
      "name": "_name",
      "outputs": [
        {
          "internalType": "string",
          "name": "",
          "type": "string"
        }
      ],
      "stateMutability": "view",
      "type": "function"
    },
    {
      "inputs": [
        {
          "internalType": "address",
          "name": "",
          "type": "address"
        },
        {
          "internalType": "address",
          "name": "",
          "type": "address"
        }
      ],
      "name": "_operatorApprovals",
      "outputs": [
        {
          "internalType": "bool",
          "name": "",
          "type": "bool"
        }
      ],
      "stateMutability": "view",
      "type": "function"
    },
    {
      "inputs": [
        {
          "internalType": "uint256",
          "name": "",
          "type": "uint256"
        }
      ],
      "name": "_owners",
      "outputs": [
        {
          "internalType": "address",
          "name": "",
          "type": "address"
        }
      ],
      "stateMutability": "view",
      "type": "function"
    },
    {
      "inputs": [],
      "name": "_symbol",
      "outputs": [
        {
          "internalType": "string",
          "name": "",
          "type": "string"
        }
      ],
      "stateMutability": "view",
      "type": "function"
    },
    {
      "inputs": [
        {
          "internalType": "uint256",
          "name": "",
          "type": "uint256"
        }
      ],
      "name": "_tokenApprovals",
      "outputs": [
        {
          "internalType": "address",
          "name": "",
          "type": "address"
        }
      ],
      "stateMutability": "view",
      "type": "function"
    },
    {
      "inputs": [
        {
          "internalType": "uint256",
          "name": "",
          "type": "uint256"
        }
      ],
      "name": "_tokenURIs",
      "outputs": [
        {
          "internalType": "string",
          "name": "",
          "type": "string"
        }
      ],
      "stateMutability": "view",
      "type": "function"
    },
    {
      "inputs": [
        {
          "internalType": "address",
          "name": "to",
          "type": "address"
        },
        {
          "internalType": "uint256",
          "name": "tokenId",
          "type": "uint256"
        }
      ],
      "name": "approve",
      "outputs": [],
      "stateMutability": "nonpayable",
      "type": "function"
    },
    {
      "inputs": [
        {
          "internalType": "address",
          "name": "owner",
          "type": "address"
        }
      ],
      "name": "balanceOf",
      "outputs": [
        {
          "internalType": "uint256",
          "name": "",
          "type": "uint256"
        }
      ],
      "stateMutability": "view",
      "type": "function"
    },
    {
      "inputs": [
        {
          "internalType": "uint256",
          "name": "tokenId",
          "type": "uint256"
        }
      ],
      "name": "getApproved",
      "outputs": [
        {
          "internalType": "address",
          "name": "",
          "type": "address"
        }
      ],
      "stateMutability": "view",
      "type": "function"
    },
    {
      "inputs": [
        {
          "internalType": "address",
          "name": "owner",
          "type": "address"
        },
        {
          "internalType": "address",
          "name": "operator",
          "type": "address"
        }
      ],
      "name": "isApprovedForAll",
      "outputs": [
        {
          "internalType": "bool",
          "name": "",
          "type": "bool"
        }
      ],
      "stateMutability": "view",
      "type": "function"
    },
    {
      "inputs": [],
      "name": "name",
      "outputs": [
        {
          "internalType": "string",
          "name": "",
          "type": "string"
        }
      ],
      "stateMutability": "view",
      "type": "function"
    },
    {
      "inputs": [
        {
          "internalType": "uint256",
          "name": "tokenId",
          "type": "uint256"
        }
      ],
      "name": "ownerOf",
      "outputs": [
        {
          "internalType": "address",
          "name": "",
          "type": "address"
        }
      ],
      "stateMutability": "view",
      "type": "function"
    },
    {
      "inputs": [
        {
          "internalType": "address",
          "name": "from",
          "type": "address"
        },
        {
          "internalType": "address",
          "name": "to",
          "type": "address"
        },
        {
          "internalType": "uint256",
          "name": "tokenId",
          "type": "uint256"
        }
      ],
      "name": "safeTransferFrom",
      "outputs": [],
      "stateMutability": "nonpayable",
      "type": "function"
    },
    {
      "inputs": [
        {
          "internalType": "address",
          "name": "from",
          "type": "address"
        },
        {
          "internalType": "address",
          "name": "to",
          "type": "address"
        },
        {
          "internalType": "uint256",
          "name": "tokenId",
          "type": "uint256"
        },
        {
          "internalType": "bytes",
          "name": "_data",
          "type": "bytes"
        }
      ],
      "name": "safeTransferFrom",
      "outputs": [],
      "stateMutability": "nonpayable",
      "type": "function"
    },
    {
      "inputs": [
        {
          "internalType": "address",
          "name": "operator",
          "type": "address"
        },
        {
          "internalType": "bool",
          "name": "approved",
          "type": "bool"
        }
      ],
      "name": "setApprovalForAll",
      "outputs": [],
      "stateMutability": "nonpayable",
      "type": "function"
    },
    {
      "inputs": [
        {
          "internalType": "bytes4",
          "name": "interfaceId",
          "type": "bytes4"
        }
      ],
      "name": "supportsInterface",
      "outputs": [
        {
          "internalType": "bool",
          "name": "",
          "type": "bool"
        }
      ],
      "stateMutability": "view",
      "type": "function"
    },
    {
      "inputs": [],
      "name": "symbol",
      "outputs": [
        {
          "internalType": "string",
          "name": "",
          "type": "string"
        }
      ],
      "stateMutability": "view",
      "type": "function"
    },
    {
      "inputs": [
        {
          "internalType": "uint256",
          "name": "tokenId",
          "type": "uint256"
        }
      ],
      "name": "tokenURI",
      "outputs": [
        {
          "internalType": "string",
          "name": "",
          "type": "string"
        }
      ],
      "stateMutability": "view",
      "type": "function"
    },
    {
      "inputs": [
        {
          "internalType": "address",
          "name": "from",
          "type": "address"
        },
        {
          "internalType": "address",
          "name": "to",
          "type": "address"
        },
        {
          "internalType": "uint256",
          "name": "tokenId",
          "type": "uint256"
        }
      ],
      "name": "transferFrom",
      "outputs": [],
      "stateMutability": "nonpayable",
      "type": "function"
    }
  ],
  "bytecode": "0x60806040523480156200001157600080fd5b50604051620026fe380380620026fe833981810160405281019062000037919062000193565b81600090805190602001906200004f92919062000071565b5080600190805190602001906200006892919062000071565b50505062000337565b8280546200007f90620002a3565b90600052602060002090601f016020900481019282620000a35760008555620000ef565b82601f10620000be57805160ff1916838001178555620000ef565b82800160010185558215620000ef579182015b82811115620000ee578251825591602001919060010190620000d1565b5b509050620000fe919062000102565b5090565b5b808211156200011d57600081600090555060010162000103565b5090565b60006200013862000132846200023a565b62000206565b9050828152602081018484840111156200015157600080fd5b6200015e8482856200026d565b509392505050565b600082601f8301126200017857600080fd5b81516200018a84826020860162000121565b91505092915050565b60008060408385031215620001a757600080fd5b600083015167ffffffffffffffff811115620001c257600080fd5b620001d08582860162000166565b925050602083015167ffffffffffffffff811115620001ee57600080fd5b620001fc8582860162000166565b9150509250929050565b6000604051905081810181811067ffffffffffffffff8211171562000230576200022f62000308565b5b8060405250919050565b600067ffffffffffffffff82111562000258576200025762000308565b5b601f19601f8301169050602081019050919050565b60005b838110156200028d57808201518184015260208101905062000270565b838111156200029d576000848401525b50505050565b60006002820490506001821680620002bc57607f821691505b60208210811415620002d357620002d2620002d9565b5b50919050565b7f4e487b7100000000000000000000000000000000000000000000000000000000600052602260045260246000fd5b7f4e487b7100000000000000000000000000000000000000000000000000000000600052604160045260246000fd5b6123b780620003476000396000f3fe608060405234801561001057600080fd5b506004361061012c5760003560e01c806395d89b41116100ad578063b88d4fde11610071578063b88d4fde1461037b578063c87b56dd14610397578063d28d8852146103c7578063e985e9c5146103e5578063edc3bc3f146104155761012c565b806395d89b41146102c3578063992924a6146102e1578063a22cb46514610311578063a7cc01361461032d578063b09f12661461035d5761012c565b806323b872dd116100f457806323b872dd146101fb57806342842e0e146102175780636352211e146102335780636ebcf6071461026357806370a08231146102935761012c565b806301ffc9a71461013157806306fdde0314610161578063081812fc1461017f578063095ea7b3146101af5780630bb78ec1146101cb575b600080fd5b61014b60048036038101906101469190611821565b610445565b6040516101589190611e99565b60405180910390f35b6101696104af565b6040516101769190611eb4565b60405180910390f35b61019960048036038101906101949190611873565b610541565b6040516101a69190611e32565b60405180910390f35b6101c960048036038101906101c491906117e5565b6105c6565b005b6101e560048036038101906101e09190611873565b6106d0565b6040516101f29190611eb4565b60405180910390f35b610215600480360381019061021091906116df565b610770565b005b610231600480360381019061022c91906116df565b6107c9565b005b61024d60048036038101906102489190611873565b6107e9565b60405161025a9190611e32565b60405180910390f35b61027d6004803603810190610278919061167a565b61089b565b60405161028a9190612056565b60405180910390f35b6102ad60048036038101906102a8919061167a565b6108b3565b6040516102ba9190612056565b60405180910390f35b6102cb61096b565b6040516102d89190611eb4565b60405180910390f35b6102fb60048036038101906102f69190611873565b6109fd565b6040516103089190611e32565b60405180910390f35b61032b600480360381019061032691906117a9565b610a30565b005b61034760048036038101906103429190611873565b610b9c565b6040516103549190611e32565b60405180910390f35b610365610bcf565b6040516103729190611eb4565b60405180910390f35b6103956004803603810190610390919061172e565b610c5d565b005b6103b160048036038101906103ac9190611873565b610cb8565b6040516103be9190611eb4565b60405180910390f35b6103cf610dee565b6040516103dc9190611eb4565b60405180910390f35b6103ff60048036038101906103fa91906116a3565b610e7c565b60405161040c9190611e99565b60405180910390f35b61042f600480360381019061042a91906116a3565b610f10565b60405161043c9190611e99565b60405180910390f35b60007f01ffc9a7000000000000000000000000000000000000000000000000000000007bffffffffffffffffffffffffffffffffffffffffffffffffffffffff1916827bffffffffffffffffffffffffffffffffffffffffffffffffffffffff1916149050919050565b6060600080546104be90612255565b80601f01602080910402602001604051908101604052809291908181526020018280546104ea90612255565b80156105375780601f1061050c57610100808354040283529160200191610537565b820191906000526020600020905b81548152906001019060200180831161051a57829003601f168201915b5050505050905090565b600061054c82610f3f565b61058b576040517f08c379a000000000000000000000000000000000000000000000000000000000815260040161058290611fd6565b60405180910390fd5b6004600083815260200190815260200160002060009054906101000a900473ffffffffffffffffffffffffffffffffffffffff169050919050565b60006105d1826107e9565b90508073ffffffffffffffffffffffffffffffffffffffff168373ffffffffffffffffffffffffffffffffffffffff161415610642576040517f08c379a000000000000000000000000000000000000000000000000000000000815260040161063990612016565b60405180910390fd5b8073ffffffffffffffffffffffffffffffffffffffff163373ffffffffffffffffffffffffffffffffffffffff16148061068257506106818133610e7c565b5b6106c1576040517f08c379a00000000000000000000000000000000000000000000000000000000081526004016106b890611f56565b60405180910390fd5b6106cb8383610fab565b505050565b600660205280600052604060002060009150905080546106ef90612255565b80601f016020809104026020016040519081016040528092919081815260200182805461071b90612255565b80156107685780601f1061073d57610100808354040283529160200191610768565b820191906000526020600020905b81548152906001019060200180831161074b57829003601f168201915b505050505081565b61077a3382611064565b6107b9576040517f08c379a00000000000000000000000000000000000000000000000000000000081526004016107b090612036565b60405180910390fd5b6107c4838383611142565b505050565b6107e483838360405180602001604052806000815250610c5d565b505050565b6000806002600084815260200190815260200160002060009054906101000a900473ffffffffffffffffffffffffffffffffffffffff169050600073ffffffffffffffffffffffffffffffffffffffff168173ffffffffffffffffffffffffffffffffffffffff161415610892576040517f08c379a000000000000000000000000000000000000000000000000000000000815260040161088990611f96565b60405180910390fd5b80915050919050565b60036020528060005260406000206000915090505481565b60008073ffffffffffffffffffffffffffffffffffffffff168273ffffffffffffffffffffffffffffffffffffffff161415610924576040517f08c379a000000000000000000000000000000000000000000000000000000000815260040161091b90611f76565b60405180910390fd5b600360008373ffffffffffffffffffffffffffffffffffffffff1673ffffffffffffffffffffffffffffffffffffffff168152602001908152602001600020549050919050565b60606001805461097a90612255565b80601f01602080910402602001604051908101604052809291908181526020018280546109a690612255565b80156109f35780601f106109c8576101008083540402835291602001916109f3565b820191906000526020600020905b8154815290600101906020018083116109d657829003601f168201915b5050505050905090565b60026020528060005260406000206000915054906101000a900473ffffffffffffffffffffffffffffffffffffffff1681565b3373ffffffffffffffffffffffffffffffffffffffff168273ffffffffffffffffffffffffffffffffffffffff161415610a9f576040517f08c379a0000000000000000000000000000000000000000000000000000000008152600401610a9690611f16565b60405180910390fd5b80600560003373ffffffffffffffffffffffffffffffffffffffff1673ffffffffffffffffffffffffffffffffffffffff16815260200190815260200160002060008473ffffffffffffffffffffffffffffffffffffffff1673ffffffffffffffffffffffffffffffffffffffff16815260200190815260200160002060006101000a81548160ff0219169083151502179055508173ffffffffffffffffffffffffffffffffffffffff163373ffffffffffffffffffffffffffffffffffffffff167f17307eab39ab6107e8899845ad3d59bd9653f200f220920489ca2b5937696c3183604051610b909190611e99565b60405180910390a35050565b60046020528060005260406000206000915054906101000a900473ffffffffffffffffffffffffffffffffffffffff1681565b60018054610bdc90612255565b80601f0160208091040260200160405190810160405280929190818152602001828054610c0890612255565b8015610c555780601f10610c2a57610100808354040283529160200191610c55565b820191906000526020600020905b815481529060010190602001808311610c3857829003601f168201915b505050505081565b610c673383611064565b610ca6576040517f08c379a0000000000000000000000000000000000000000000000000000000008152600401610c9d90612036565b60405180910390fd5b610cb284848484611393565b50505050565b6060610cc382610f3f565b610d02576040517f08c379a0000000000000000000000000000000000000000000000000000000008152600401610cf990611fb6565b60405180910390fd5b6000600660008481526020019081526020016000208054610d2290612255565b80601f0160208091040260200160405190810160405280929190818152602001828054610d4e90612255565b8015610d9b5780601f10610d7057610100808354040283529160200191610d9b565b820191906000526020600020905b815481529060010190602001808311610d7e57829003601f168201915b505050505090506000610dac6113ef565b9050600081511415610dc2578192505050610de9565b8082604051602001610dd5929190611e0e565b604051602081830303815290604052925050505b919050565b60008054610dfb90612255565b80601f0160208091040260200160405190810160405280929190818152602001828054610e2790612255565b8015610e745780601f10610e4957610100808354040283529160200191610e74565b820191906000526020600020905b815481529060010190602001808311610e5757829003601f168201915b505050505081565b6000600560008473ffffffffffffffffffffffffffffffffffffffff1673ffffffffffffffffffffffffffffffffffffffff16815260200190815260200160002060008373ffffffffffffffffffffffffffffffffffffffff1673ffffffffffffffffffffffffffffffffffffffff16815260200190815260200160002060009054906101000a900460ff16905092915050565b60056020528160005260406000206020528060005260406000206000915091509054906101000a900460ff1681565b60008073ffffffffffffffffffffffffffffffffffffffff166002600084815260200190815260200160002060009054906101000a900473ffffffffffffffffffffffffffffffffffffffff1673ffffffffffffffffffffffffffffffffffffffff1614159050919050565b816004600083815260200190815260200160002060006101000a81548173ffffffffffffffffffffffffffffffffffffffff021916908373ffffffffffffffffffffffffffffffffffffffff160217905550808273ffffffffffffffffffffffffffffffffffffffff1661101e836107e9565b73ffffffffffffffffffffffffffffffffffffffff167f8c5be1e5ebec7d5bd14f71427d1e84f3dd0314c0f7b2291e5b200ac8c7c3b92560405160405180910390a45050565b600061106f82610f3f565b6110ae576040517f08c379a00000000000000000000000000000000000000000000000000000000081526004016110a590611f36565b60405180910390fd5b60006110b9836107e9565b90508073ffffffffffffffffffffffffffffffffffffffff168473ffffffffffffffffffffffffffffffffffffffff16148061112857508373ffffffffffffffffffffffffffffffffffffffff1661111084610541565b73ffffffffffffffffffffffffffffffffffffffff16145b8061113957506111388185610e7c565b5b91505092915050565b8273ffffffffffffffffffffffffffffffffffffffff16611162826107e9565b73ffffffffffffffffffffffffffffffffffffffff16146111b8576040517f08c379a00000000000000000000000000000000000000000000000000000000081526004016111af90611ff6565b60405180910390fd5b600073ffffffffffffffffffffffffffffffffffffffff168273ffffffffffffffffffffffffffffffffffffffff161415611228576040517f08c379a000000000000000000000000000000000000000000000000000000000815260040161121f90611ef6565b60405180910390fd5b611233600082610fab565b6001600360008573ffffffffffffffffffffffffffffffffffffffff1673ffffffffffffffffffffffffffffffffffffffff1681526020019081526020016000206000828254611283919061216b565b925050819055506001600360008473ffffffffffffffffffffffffffffffffffffffff1673ffffffffffffffffffffffffffffffffffffffff16815260200190815260200160002060008282546112da9190612115565b92505081905550816002600083815260200190815260200160002060006101000a81548173ffffffffffffffffffffffffffffffffffffffff021916908373ffffffffffffffffffffffffffffffffffffffff160217905550808273ffffffffffffffffffffffffffffffffffffffff168473ffffffffffffffffffffffffffffffffffffffff167fddf252ad1be2c89b69c2b068fc378daa952ba7f163c4a11628f55a4df523b3ef60405160405180910390a4505050565b61139e848484611142565b6113aa84848484611406565b6113e9576040517f08c379a00000000000000000000000000000000000000000000000000000000081526004016113e090611ed6565b60405180910390fd5b50505050565b606060405180602001604052806000815250905090565b60006114278473ffffffffffffffffffffffffffffffffffffffff16611596565b15611589578373ffffffffffffffffffffffffffffffffffffffff1663150b7a02338786866040518563ffffffff1660e01b815260040161146b9493929190611e4d565b602060405180830381600087803b15801561148557600080fd5b505af19250505080156114b657506040513d601f19601f820116820180604052508101906114b3919061184a565b60015b611539573d80600081146114e6576040519150601f19603f3d011682016040523d82523d6000602084013e6114eb565b606091505b50600081511415611531576040517f08c379a000000000000000000000000000000000000000000000000000000000815260040161152890611ed6565b60405180910390fd5b805181602001fd5b63150b7a0260e01b7bffffffffffffffffffffffffffffffffffffffffffffffffffffffff1916817bffffffffffffffffffffffffffffffffffffffffffffffffffffffff19161491505061158e565b600190505b949350505050565b600080823b905060008111915050919050565b60006115bc6115b7846120a2565b612071565b9050828152602081018484840111156115d457600080fd5b6115df848285612213565b509392505050565b6000813590506115f681612325565b92915050565b60008135905061160b8161233c565b92915050565b60008135905061162081612353565b92915050565b60008151905061163581612353565b92915050565b600082601f83011261164c57600080fd5b813561165c8482602086016115a9565b91505092915050565b6000813590506116748161236a565b92915050565b60006020828403121561168c57600080fd5b600061169a848285016115e7565b91505092915050565b600080604083850312156116b657600080fd5b60006116c4858286016115e7565b92505060206116d5858286016115e7565b9150509250929050565b6000806000606084860312156116f457600080fd5b6000611702868287016115e7565b9350506020611713868287016115e7565b925050604061172486828701611665565b9150509250925092565b6000806000806080858703121561174457600080fd5b6000611752878288016115e7565b9450506020611763878288016115e7565b935050604061177487828801611665565b925050606085013567ffffffffffffffff81111561179157600080fd5b61179d8782880161163b565b91505092959194509250565b600080604083850312156117bc57600080fd5b60006117ca858286016115e7565b92505060206117db858286016115fc565b9150509250929050565b600080604083850312156117f857600080fd5b6000611806858286016115e7565b925050602061181785828601611665565b9150509250929050565b60006020828403121561183357600080fd5b600061184184828501611611565b91505092915050565b60006020828403121561185c57600080fd5b600061186a84828501611626565b91505092915050565b60006020828403121561188557600080fd5b600061189384828501611665565b91505092915050565b6118a58161219f565b82525050565b6118b4816121b1565b82525050565b60006118c5826120d2565b6118cf81856120e8565b93506118df818560208601612222565b6118e881612314565b840191505092915050565b60006118fe826120dd565b61190881856120f9565b9350611918818560208601612222565b61192181612314565b840191505092915050565b6000611937826120dd565b611941818561210a565b9350611951818560208601612222565b80840191505092915050565b600061196a6032836120f9565b91507f4552433732313a207472616e7366657220746f206e6f6e20455243373231526560008301527f63656976657220696d706c656d656e74657200000000000000000000000000006020830152604082019050919050565b60006119d06024836120f9565b91507f4552433732313a207472616e7366657220746f20746865207a65726f2061646460008301527f72657373000000000000000000000000000000000000000000000000000000006020830152604082019050919050565b6000611a366019836120f9565b91507f4552433732313a20617070726f766520746f2063616c6c6572000000000000006000830152602082019050919050565b6000611a76602c836120f9565b91507f4552433732313a206f70657261746f7220717565727920666f72206e6f6e657860008301527f697374656e7420746f6b656e00000000000000000000000000000000000000006020830152604082019050919050565b6000611adc6038836120f9565b91507f4552433732313a20617070726f76652063616c6c6572206973206e6f74206f7760008301527f6e6572206e6f7220617070726f76656420666f7220616c6c00000000000000006020830152604082019050919050565b6000611b42602a836120f9565b91507f4552433732313a2062616c616e636520717565727920666f7220746865207a6560008301527f726f2061646472657373000000000000000000000000000000000000000000006020830152604082019050919050565b6000611ba8602a836120f9565b91507f4552433732313a204f776e657220717565727920666f72206e6f6e2d6578697360008301527f74656e7420746f6b656e000000000000000000000000000000000000000000006020830152604082019050919050565b6000611c0e6031836120f9565b91507f45524337323155524953746f726167653a2055524920717565727920666f722060008301527f6e6f6e6578697374656e7420746f6b656e0000000000000000000000000000006020830152604082019050919050565b6000611c74602c836120f9565b91507f4552433732313a20617070726f76656420717565727920666f72206e6f6e657860008301527f697374656e7420746f6b656e00000000000000000000000000000000000000006020830152604082019050919050565b6000611cda6029836120f9565b91507f4552433732313a207472616e73666572206f6620746f6b656e2074686174206960008301527f73206e6f74206f776e00000000000000000000000000000000000000000000006020830152604082019050919050565b6000611d406021836120f9565b91507f4552433732313a20617070726f76616c20746f2063757272656e74206f776e6560008301527f72000000000000000000000000000000000000000000000000000000000000006020830152604082019050919050565b6000611da66031836120f9565b91507f4552433732313a207472616e736665722063616c6c6572206973206e6f74206f60008301527f776e6572206e6f7220617070726f7665640000000000000000000000000000006020830152604082019050919050565b611e0881612209565b82525050565b6000611e1a828561192c565b9150611e26828461192c565b91508190509392505050565b6000602082019050611e47600083018461189c565b92915050565b6000608082019050611e62600083018761189c565b611e6f602083018661189c565b611e7c6040830185611dff565b8181036060830152611e8e81846118ba565b905095945050505050565b6000602082019050611eae60008301846118ab565b92915050565b60006020820190508181036000830152611ece81846118f3565b905092915050565b60006020820190508181036000830152611eef8161195d565b9050919050565b60006020820190508181036000830152611f0f816119c3565b9050919050565b60006020820190508181036000830152611f2f81611a29565b9050919050565b60006020820190508181036000830152611f4f81611a69565b9050919050565b60006020820190508181036000830152611f6f81611acf565b9050919050565b60006020820190508181036000830152611f8f81611b35565b9050919050565b60006020820190508181036000830152611faf81611b9b565b9050919050565b60006020820190508181036000830152611fcf81611c01565b9050919050565b60006020820190508181036000830152611fef81611c67565b9050919050565b6000602082019050818103600083015261200f81611ccd565b9050919050565b6000602082019050818103600083015261202f81611d33565b9050919050565b6000602082019050818103600083015261204f81611d99565b9050919050565b600060208201905061206b6000830184611dff565b92915050565b6000604051905081810181811067ffffffffffffffff82111715612098576120976122e5565b5b8060405250919050565b600067ffffffffffffffff8211156120bd576120bc6122e5565b5b601f19601f8301169050602081019050919050565b600081519050919050565b600081519050919050565b600082825260208201905092915050565b600082825260208201905092915050565b600081905092915050565b600061212082612209565b915061212b83612209565b9250827fffffffffffffffffffffffffffffffffffffffffffffffffffffffffffffffff038211156121605761215f612287565b5b828201905092915050565b600061217682612209565b915061218183612209565b92508282101561219457612193612287565b5b828203905092915050565b60006121aa826121e9565b9050919050565b60008115159050919050565b60007fffffffff0000000000000000000000000000000000000000000000000000000082169050919050565b600073ffffffffffffffffffffffffffffffffffffffff82169050919050565b6000819050919050565b82818337600083830152505050565b60005b83811015612240578082015181840152602081019050612225565b8381111561224f576000848401525b50505050565b6000600282049050600182168061226d57607f821691505b60208210811415612281576122806122b6565b5b50919050565b7f4e487b7100000000000000000000000000000000000000000000000000000000600052601160045260246000fd5b7f4e487b7100000000000000000000000000000000000000000000000000000000600052602260045260246000fd5b7f4e487b7100000000000000000000000000000000000000000000000000000000600052604160045260246000fd5b6000601f19601f8301169050919050565b61232e8161219f565b811461233957600080fd5b50565b612345816121b1565b811461235057600080fd5b50565b61235c816121bd565b811461236757600080fd5b50565b61237381612209565b811461237e57600080fd5b5056fea26469706673582212202df3ce91e7f8b051597bbf432f24272ad8907f8edda325dbfecbb7ceee64bbce64736f6c63430008000033",
  "linkReferences": {},
  "deployedLinkReferences": {}
}