{
  "_format": "hh-sol-artifact-1",
  "contractName": "DeXAuction",
  "sourceName": "contracts/DexAuction.sol",
  "abi": [
    {
      "anonymous": false,
      "inputs": [
        {
          "indexed": true,
          "internalType": "address",
          "name": "owner",
          "type": "address"
        },
        {
          "indexed": true,
          "internalType": "address",
          "name": "approved",
          "type": "address"
        },
        {
          "indexed": true,
          "internalType": "uint256",
          "name": "tokenId",
          "type": "uint256"
        }
      ],
      "name": "Approval",
      "type": "event"
    },
    {
      "anonymous": false,
      "inputs": [
        {
          "indexed": true,
          "internalType": "address",
          "name": "owner",
          "type": "address"
        },
        {
          "indexed": true,
          "internalType": "address",
          "name": "operator",
          "type": "address"
        },
        {
          "indexed": false,
          "internalType": "bool",
          "name": "approved",
          "type": "bool"
        }
      ],
      "name": "ApprovalForAll",
      "type": "event"
    },
    {
      "anonymous": false,
      "inputs": [
        {
          "indexed": true,
          "internalType": "address",
          "name": "from",
          "type": "address"
        },
        {
          "indexed": true,
          "internalType": "uint256",
          "name": "tokenID",
          "type": "uint256"
        }
      ],
      "name": "Burned",
      "type": "event"
    },
    {
      "anonymous": false,
      "inputs": [
        {
          "indexed": false,
          "internalType": "address",
          "name": "NewCEO",
          "type": "address"
        }
      ],
      "name": "CEOchanged",
      "type": "event"
    },
    {
      "anonymous": false,
      "inputs": [
        {
          "indexed": false,
          "internalType": "address",
          "name": "NewCFO",
          "type": "address"
        }
      ],
      "name": "CFOchanged",
      "type": "event"
    },
    {
      "anonymous": false,
      "inputs": [
        {
          "indexed": false,
          "internalType": "uint256",
          "name": "Amount",
          "type": "uint256"
        }
      ],
      "name": "EthersWithdrawn",
      "type": "event"
    },
    {
      "anonymous": false,
      "inputs": [
        {
          "indexed": true,
          "internalType": "address",
          "name": "from",
          "type": "address"
        },
        {
          "indexed": true,
          "internalType": "uint256",
          "name": "tokenID",
          "type": "uint256"
        }
      ],
      "name": "Minted",
      "type": "event"
    },
    {
      "anonymous": false,
      "inputs": [
        {
          "indexed": false,
          "internalType": "address",
          "name": "from",
          "type": "address"
        },
        {
          "indexed": false,
          "internalType": "uint256",
          "name": "amount",
          "type": "uint256"
        }
      ],
      "name": "OwnerCutWithdrawn",
      "type": "event"
    },
    {
      "anonymous": false,
      "inputs": [
        {
          "indexed": false,
          "internalType": "address",
          "name": "by",
          "type": "address"
        }
      ],
      "name": "Paused",
      "type": "event"
    },
    {
      "anonymous": false,
      "inputs": [
        {
          "indexed": true,
          "internalType": "address",
          "name": "from",
          "type": "address"
        },
        {
          "indexed": true,
          "internalType": "address",
          "name": "to",
          "type": "address"
        },
        {
          "indexed": true,
          "internalType": "uint256",
          "name": "tokenId",
          "type": "uint256"
        }
      ],
      "name": "Transfer",
      "type": "event"
    },
    {
      "anonymous": false,
      "inputs": [
        {
          "indexed": false,
          "internalType": "address",
          "name": "by",
          "type": "address"
        }
      ],
      "name": "Unpaused",
      "type": "event"
    },
    {
      "inputs": [
        {
          "internalType": "uint256",
          "name": "_tokenId",
          "type": "uint256"
        }
      ],
      "name": "Approve",
      "outputs": [],
      "stateMutability": "nonpayable",
      "type": "function"
    },
    {
      "inputs": [
        {
          "internalType": "uint256",
          "name": "",
          "type": "uint256"
        }
      ],
      "name": "Assets",
      "outputs": [
        {
          "internalType": "uint256",
          "name": "tokenId",
          "type": "uint256"
        },
        {
          "internalType": "address",
          "name": "owner",
          "type": "address"
        }
      ],
      "stateMutability": "view",
      "type": "function"
    },
    {
      "inputs": [
        {
          "internalType": "uint256",
          "name": "tokenId",
          "type": "uint256"
        }
      ],
      "name": "Burn",
      "outputs": [],
      "stateMutability": "nonpayable",
      "type": "function"
    },
    {
      "inputs": [
        {
          "internalType": "uint256",
          "name": "tokenId",
          "type": "uint256"
        }
      ],
      "name": "Claim",
      "outputs": [],
      "stateMutability": "nonpayable",
      "type": "function"
    },
    {
      "inputs": [
        {
          "internalType": "uint256",
          "name": "tokenId",
          "type": "uint256"
        },
        {
          "internalType": "address",
          "name": "owner",
          "type": "address"
        }
      ],
      "name": "Escrowed",
      "outputs": [],
      "stateMutability": "nonpayable",
      "type": "function"
    },
    {
      "inputs": [
        {
          "internalType": "string",
          "name": "_ipfsHash",
          "type": "string"
        }
      ],
      "name": "Mint",
      "outputs": [
        {
          "internalType": "uint256",
          "name": "",
          "type": "uint256"
        }
      ],
      "stateMutability": "nonpayable",
      "type": "function"
    },
    {
      "inputs": [],
      "name": "Pause",
      "outputs": [],
      "stateMutability": "nonpayable",
      "type": "function"
    },
    {
      "inputs": [
        {
          "internalType": "address",
          "name": "auctionContract",
          "type": "address"
        }
      ],
      "name": "SetAuctionAddress",
      "outputs": [],
      "stateMutability": "nonpayable",
      "type": "function"
    },
    {
      "inputs": [
        {
          "internalType": "address",
          "name": "newCEO",
          "type": "address"
        }
      ],
      "name": "SetCEO",
      "outputs": [],
      "stateMutability": "nonpayable",
      "type": "function"
    },
    {
      "inputs": [
        {
          "internalType": "address",
          "name": "newCFO",
          "type": "address"
        }
      ],
      "name": "SetCFO",
      "outputs": [],
      "stateMutability": "nonpayable",
      "type": "function"
    },
    {
      "inputs": [],
      "name": "TransferEthers",
      "outputs": [],
      "stateMutability": "nonpayable",
      "type": "function"
    },
    {
      "inputs": [
        {
          "internalType": "uint256",
          "name": "tokenId",
          "type": "uint256"
        },
        {
          "internalType": "address",
          "name": "owner",
          "type": "address"
        }
      ],
      "name": "Transfered",
      "outputs": [],
      "stateMutability": "nonpayable",
      "type": "function"
    },
    {
      "inputs": [],
      "name": "Unpause",
      "outputs": [],
      "stateMutability": "nonpayable",
      "type": "function"
    },
    {
      "inputs": [],
      "name": "WithdrawOwnerCut",
      "outputs": [],
      "stateMutability": "nonpayable",
      "type": "function"
    },
    {
      "inputs": [
        {
          "internalType": "address",
          "name": "",
          "type": "address"
        }
      ],
      "name": "_balances",
      "outputs": [
        {
          "internalType": "uint256",
          "name": "",
          "type": "uint256"
        }
      ],
      "stateMutability": "view",
      "type": "function"
    },
    {
      "inputs": [],
      "name": "_name",
      "outputs": [
        {
          "internalType": "string",
          "name": "",
          "type": "string"
        }
      ],
      "stateMutability": "view",
      "type": "function"
    },
    {
      "inputs": [
        {
          "internalType": "address",
          "name": "",
          "type": "address"
        },
        {
          "internalType": "address",
          "name": "",
          "type": "address"
        }
      ],
      "name": "_operatorApprovals",
      "outputs": [
        {
          "internalType": "bool",
          "name": "",
          "type": "bool"
        }
      ],
      "stateMutability": "view",
      "type": "function"
    },
    {
      "inputs": [
        {
          "internalType": "uint256",
          "name": "",
          "type": "uint256"
        }
      ],
      "name": "_owners",
      "outputs": [
        {
          "internalType": "address",
          "name": "",
          "type": "address"
        }
      ],
      "stateMutability": "view",
      "type": "function"
    },
    {
      "inputs": [],
      "name": "_symbol",
      "outputs": [
        {
          "internalType": "string",
          "name": "",
          "type": "string"
        }
      ],
      "stateMutability": "view",
      "type": "function"
    },
    {
      "inputs": [
        {
          "internalType": "uint256",
          "name": "",
          "type": "uint256"
        }
      ],
      "name": "_tokenApprovals",
      "outputs": [
        {
          "internalType": "address",
          "name": "",
          "type": "address"
        }
      ],
      "stateMutability": "view",
      "type": "function"
    },
    {
      "inputs": [
        {
          "internalType": "uint256",
          "name": "",
          "type": "uint256"
        }
      ],
      "name": "_tokenURIs",
      "outputs": [
        {
          "internalType": "string",
          "name": "",
          "type": "string"
        }
      ],
      "stateMutability": "view",
      "type": "function"
    },
    {
      "inputs": [
        {
          "internalType": "address",
          "name": "to",
          "type": "address"
        },
        {
          "internalType": "uint256",
          "name": "tokenId",
          "type": "uint256"
        }
      ],
      "name": "approve",
      "outputs": [],
      "stateMutability": "nonpayable",
      "type": "function"
    },
    {
      "inputs": [],
      "name": "auction",
      "outputs": [
        {
          "internalType": "contract AuctionBase",
          "name": "",
          "type": "address"
        }
      ],
      "stateMutability": "view",
      "type": "function"
    },
    {
      "inputs": [
        {
          "internalType": "address",
          "name": "owner",
          "type": "address"
        }
      ],
      "name": "balanceOf",
      "outputs": [
        {
          "internalType": "uint256",
          "name": "",
          "type": "uint256"
        }
      ],
      "stateMutability": "view",
      "type": "function"
    },
    {
      "inputs": [],
      "name": "ceoAddress",
      "outputs": [
        {
          "internalType": "address",
          "name": "",
          "type": "address"
        }
      ],
      "stateMutability": "view",
      "type": "function"
    },
    {
      "inputs": [],
      "name": "cfoAddress",
      "outputs": [
        {
          "internalType": "address",
          "name": "",
          "type": "address"
        }
      ],
      "stateMutability": "view",
      "type": "function"
    },
    {
      "inputs": [],
      "name": "getAllAssets",
      "outputs": [
        {
          "components": [
            {
              "internalType": "uint256",
              "name": "tokenId",
              "type": "uint256"
            },
            {
              "internalType": "address",
              "name": "owner",
              "type": "address"
            }
          ],
          "internalType": "struct AssetBase.Asset[]",
          "name": "",
          "type": "tuple[]"
        }
      ],
      "stateMutability": "view",
      "type": "function"
    },
    {
      "inputs": [
        {
          "internalType": "uint256",
          "name": "tokenId",
          "type": "uint256"
        }
      ],
      "name": "getApproved",
      "outputs": [
        {
          "internalType": "address",
          "name": "",
          "type": "address"
        }
      ],
      "stateMutability": "view",
      "type": "function"
    },
    {
      "inputs": [
        {
          "internalType": "uint256",
          "name": "tokenId",
          "type": "uint256"
        }
      ],
      "name": "getAsset",
      "outputs": [
        {
          "components": [
            {
              "internalType": "uint256",
              "name": "tokenId",
              "type": "uint256"
            },
            {
              "internalType": "address",
              "name": "owner",
              "type": "address"
            }
          ],
          "internalType": "struct AssetBase.Asset",
          "name": "",
          "type": "tuple"
        }
      ],
      "stateMutability": "view",
      "type": "function"
    },
    {
      "inputs": [],
      "name": "getOwnerAssets",
      "outputs": [
        {
          "components": [
            {
              "internalType": "uint256",
              "name": "tokenId",
              "type": "uint256"
            },
            {
              "internalType": "address",
              "name": "owner",
              "type": "address"
            }
          ],
          "internalType": "struct AssetBase.Asset[]",
          "name": "",
          "type": "tuple[]"
        }
      ],
      "stateMutability": "view",
      "type": "function"
    },
    {
      "inputs": [
        {
          "internalType": "address",
          "name": "owner",
          "type": "address"
        },
        {
          "internalType": "address",
          "name": "operator",
          "type": "address"
        }
      ],
      "name": "isApprovedForAll",
      "outputs": [
        {
          "internalType": "bool",
          "name": "",
          "type": "bool"
        }
      ],
      "stateMutability": "view",
      "type": "function"
    },
    {
      "inputs": [],
      "name": "name",
      "outputs": [
        {
          "internalType": "string",
          "name": "",
          "type": "string"
        }
      ],
      "stateMutability": "view",
      "type": "function"
    },
    {
      "inputs": [
        {
          "internalType": "uint256",
          "name": "tokenId",
          "type": "uint256"
        }
      ],
      "name": "ownerOf",
      "outputs": [
        {
          "internalType": "address",
          "name": "",
          "type": "address"
        }
      ],
      "stateMutability": "view",
      "type": "function"
    },
    {
      "inputs": [
        {
          "internalType": "address",
          "name": "",
          "type": "address"
        },
        {
          "internalType": "uint256",
          "name": "",
          "type": "uint256"
        }
      ],
      "name": "ownsToken",
      "outputs": [
        {
          "internalType": "uint256",
          "name": "",
          "type": "uint256"
        }
      ],
      "stateMutability": "view",
      "type": "function"
    },
    {
      "inputs": [],
      "name": "paused",
      "outputs": [
        {
          "internalType": "bool",
          "name": "",
          "type": "bool"
        }
      ],
      "stateMutability": "view",
      "type": "function"
    },
    {
      "inputs": [
        {
          "internalType": "address",
          "name": "from",
          "type": "address"
        },
        {
          "internalType": "address",
          "name": "to",
          "type": "address"
        },
        {
          "internalType": "uint256",
          "name": "tokenId",
          "type": "uint256"
        }
      ],
      "name": "safeTransferFrom",
      "outputs": [],
      "stateMutability": "nonpayable",
      "type": "function"
    },
    {
      "inputs": [
        {
          "internalType": "address",
          "name": "from",
          "type": "address"
        },
        {
          "internalType": "address",
          "name": "to",
          "type": "address"
        },
        {
          "internalType": "uint256",
          "name": "tokenId",
          "type": "uint256"
        },
        {
          "internalType": "bytes",
          "name": "_data",
          "type": "bytes"
        }
      ],
      "name": "safeTransferFrom",
      "outputs": [],
      "stateMutability": "nonpayable",
      "type": "function"
    },
    {
      "inputs": [
        {
          "internalType": "address",
          "name": "operator",
          "type": "address"
        },
        {
          "internalType": "bool",
          "name": "approved",
          "type": "bool"
        }
      ],
      "name": "setApprovalForAll",
      "outputs": [],
      "stateMutability": "nonpayable",
      "type": "function"
    },
    {
      "inputs": [
        {
          "internalType": "bytes4",
          "name": "interfaceId",
          "type": "bytes4"
        }
      ],
      "name": "supportsInterface",
      "outputs": [
        {
          "internalType": "bool",
          "name": "",
          "type": "bool"
        }
      ],
      "stateMutability": "view",
      "type": "function"
    },
    {
      "inputs": [],
      "name": "symbol",
      "outputs": [
        {
          "internalType": "string",
          "name": "",
          "type": "string"
        }
      ],
      "stateMutability": "view",
      "type": "function"
    },
    {
      "inputs": [
        {
          "internalType": "uint256",
          "name": "tokenId",
          "type": "uint256"
        }
      ],
      "name": "tokenURI",
      "outputs": [
        {
          "internalType": "string",
          "name": "",
          "type": "string"
        }
      ],
      "stateMutability": "view",
      "type": "function"
    },
    {
      "inputs": [
        {
          "internalType": "address",
          "name": "from",
          "type": "address"
        },
        {
          "internalType": "address",
          "name": "to",
          "type": "address"
        },
        {
          "internalType": "uint256",
          "name": "tokenId",
          "type": "uint256"
        }
      ],
      "name": "transferFrom",
      "outputs": [],
      "stateMutability": "nonpayable",
      "type": "function"
    },
    {
      "stateMutability": "payable",
      "type": "receive"
    }
  ],
  "bytecode": "0x60806040526000600160146101000a81548160ff0219169083151502179055503480156200002c57600080fd5b506040518060400160405280600581526020017f41535345540000000000000000000000000000000000000000000000000000008152506040518060400160405280600381526020017f4153540000000000000000000000000000000000000000000000000000000000815250336000806101000a81548173ffffffffffffffffffffffffffffffffffffffff021916908373ffffffffffffffffffffffffffffffffffffffff16021790555033600160006101000a81548173ffffffffffffffffffffffffffffffffffffffff021916908373ffffffffffffffffffffffffffffffffffffffff160217905550816002908051906020019062000132929190620001fe565b5080600390805190602001906200014b929190620001fe565b505050600b6040518060400160405280600081526020013073ffffffffffffffffffffffffffffffffffffffff1681525090806001815401808255809150506001900390600052602060002090600202016000909190919091506000820151816000015560208201518160010160006101000a81548173ffffffffffffffffffffffffffffffffffffffff021916908373ffffffffffffffffffffffffffffffffffffffff160217905550505062000313565b8280546200020c90620002ae565b90600052602060002090601f0160209004810192826200023057600085556200027c565b82601f106200024b57805160ff19168380011785556200027c565b828001600101855582156200027c579182015b828111156200027b5782518255916020019190600101906200025e565b5b5090506200028b91906200028f565b5090565b5b80821115620002aa57600081600090555060010162000290565b5090565b60006002820490506001821680620002c757607f821691505b60208210811415620002de57620002dd620002e4565b5b50919050565b7f4e487b7100000000000000000000000000000000000000000000000000000000600052602260045260246000fd5b61570f80620003236000396000f3fe6080604052600436106102555760003560e01c80637d9f6db511610139578063b88d4fde116100b6578063c8a178301161007a578063c8a178301461092b578063d28d885214610942578063e985e9c51461096d578063eac8f5b8146109aa578063edc3bc3f146109e7578063f80247ae14610a2457610295565b8063b88d4fde14610836578063b90306ad1461085f578063bc67443d14610888578063c5e1d731146108b1578063c87b56dd146108ee57610295565b8063992924a6116100fd578063992924a61461072b5780639ab0cd8814610768578063a22cb465146107a5578063a7cc0136146107ce578063b09f12661461080b57610295565b80637d9f6db51461065857806383c6576e1461068357806384b74c5b146106ac5780638fcb4186146106d557806395d89b411461070057610295565b806342842e0e116101d25780636985a022116101965780636985a0221461055e5780636ebcf6071461057557806370a08231146105b257806377b92c07146105ef5780637805862f146106185780637bb2b3c11461062f57610295565b806342842e0e146104665780634b4a80ba1461048f5780634fb2724a146104cd5780635c975abb146104f65780636352211e1461052157610295565b80630a0f8168116102195780630a0f8168146103935780630bb78ec1146103be57806323b872dd146103fb5780632acada4d1461042457806341ae0b6f1461044f57610295565b806301ffc9a71461029a5780630519ce79146102d757806306fdde0314610302578063081812fc1461032d578063095ea7b31461036a57610295565b36610295577fcd01b08a52598b91219007bdba17c14840fa0dba4ff3b6cdf332bf940478a488333460405161028b929190614ea6565b60405180910390a1005b600080fd5b3480156102a657600080fd5b506102c160048036038101906102bc91906142db565b610a4d565b6040516102ce9190614ef1565b60405180910390f35b3480156102e357600080fd5b506102ec610ab7565b6040516102f99190614e3f565b60405180910390f35b34801561030e57600080fd5b50610317610add565b6040516103249190614f27565b60405180910390f35b34801561033957600080fd5b50610354600480360381019061034f919061436e565b610b6f565b6040516103619190614e3f565b60405180910390f35b34801561037657600080fd5b50610391600480360381019061038c9190614276565b610bf4565b005b34801561039f57600080fd5b506103a8610cfe565b6040516103b59190614e3f565b60405180910390f35b3480156103ca57600080fd5b506103e560048036038101906103e0919061436e565b610d22565b6040516103f29190614f27565b60405180910390f35b34801561040757600080fd5b50610422600480360381019061041d9190614170565b610dc2565b005b34801561043057600080fd5b50610439610e1b565b6040516104469190614ecf565b60405180910390f35b34801561045b57600080fd5b50610464610f2a565b005b34801561047257600080fd5b5061048d60048036038101906104889190614170565b611094565b005b34801561049b57600080fd5b506104b660048036038101906104b1919061436e565b6110b4565b6040516104c49291906152bf565b60405180910390f35b3480156104d957600080fd5b506104f460048036038101906104ef9190614397565b611108565b005b34801561050257600080fd5b5061050b6111f9565b6040516105189190614ef1565b60405180910390f35b34801561052d57600080fd5b506105486004803603810190610543919061436e565b61120c565b6040516105559190614e3f565b60405180910390f35b34801561056a57600080fd5b506105736112be565b005b34801561058157600080fd5b5061059c6004803603810190610597919061410b565b611381565b6040516105a991906152a4565b60405180910390f35b3480156105be57600080fd5b506105d960048036038101906105d4919061410b565b611399565b6040516105e691906152a4565b60405180910390f35b3480156105fb57600080fd5b506106166004803603810190610611919061436e565b611451565b005b34801561062457600080fd5b5061062d6114c0565b005b34801561063b57600080fd5b506106566004803603810190610651919061436e565b611583565b005b34801561066457600080fd5b5061066d61194f565b60405161067a9190614f0c565b60405180910390f35b34801561068f57600080fd5b506106aa60048036038101906106a59190614397565b611975565b005b3480156106b857600080fd5b506106d360048036038101906106ce919061410b565b611c05565b005b3480156106e157600080fd5b506106ea611c48565b6040516106f79190614ecf565b60405180910390f35b34801561070c57600080fd5b50610715611f33565b6040516107229190614f27565b60405180910390f35b34801561073757600080fd5b50610752600480360381019061074d919061436e565b611fc5565b60405161075f9190614e3f565b60405180910390f35b34801561077457600080fd5b5061078f600480360381019061078a9190614276565b611ff8565b60405161079c91906152a4565b60405180910390f35b3480156107b157600080fd5b506107cc60048036038101906107c7919061423a565b61201d565b005b3480156107da57600080fd5b506107f560048036038101906107f0919061436e565b612189565b6040516108029190614e3f565b60405180910390f35b34801561081757600080fd5b506108206121bc565b60405161082d9190614f27565b60405180910390f35b34801561084257600080fd5b5061085d600480360381019061085891906141bf565b61224a565b005b34801561086b57600080fd5b506108866004803603810190610881919061436e565b6122a5565b005b34801561089457600080fd5b506108af60048036038101906108aa919061410b565b61239c565b005b3480156108bd57600080fd5b506108d860048036038101906108d3919061432d565b6123df565b6040516108e591906152a4565b60405180910390f35b3480156108fa57600080fd5b506109156004803603810190610910919061436e565b6123f6565b6040516109229190614f27565b60405180910390f35b34801561093757600080fd5b5061094061252c565b005b34801561094e57600080fd5b506109576126ca565b6040516109649190614f27565b60405180910390f35b34801561097957600080fd5b50610994600480360381019061098f9190614134565b612758565b6040516109a19190614ef1565b60405180910390f35b3480156109b657600080fd5b506109d160048036038101906109cc919061436e565b6127ec565b6040516109de9190615289565b60405180910390f35b3480156109f357600080fd5b50610a0e6004803603810190610a099190614134565b6128fe565b604051610a1b9190614ef1565b60405180910390f35b348015610a3057600080fd5b50610a4b6004803603810190610a46919061410b565b61292d565b005b60007f01ffc9a7000000000000000000000000000000000000000000000000000000007bffffffffffffffffffffffffffffffffffffffffffffffffffffffff1916827bffffffffffffffffffffffffffffffffffffffffffffffffffffffff1916149050919050565b600160009054906101000a900473ffffffffffffffffffffffffffffffffffffffff1681565b606060028054610aec90615564565b80601f0160208091040260200160405190810160405280929190818152602001828054610b1890615564565b8015610b655780601f10610b3a57610100808354040283529160200191610b65565b820191906000526020600020905b815481529060010190602001808311610b4857829003601f168201915b5050505050905090565b6000610b7a826129ff565b610bb9576040517f08c379a0000000000000000000000000000000000000000000000000000000008152600401610bb090615169565b60405180910390fd5b6006600083815260200190815260200160002060009054906101000a900473ffffffffffffffffffffffffffffffffffffffff169050919050565b6000610bff8261120c565b90508073ffffffffffffffffffffffffffffffffffffffff168373ffffffffffffffffffffffffffffffffffffffff161415610c70576040517f08c379a0000000000000000000000000000000000000000000000000000000008152600401610c6790615209565b60405180910390fd5b8073ffffffffffffffffffffffffffffffffffffffff163373ffffffffffffffffffffffffffffffffffffffff161480610cb05750610caf8133612758565b5b610cef576040517f08c379a0000000000000000000000000000000000000000000000000000000008152600401610ce6906150a9565b60405180910390fd5b610cf98383612a6b565b505050565b60008054906101000a900473ffffffffffffffffffffffffffffffffffffffff1681565b60086020528060005260406000206000915090508054610d4190615564565b80601f0160208091040260200160405190810160405280929190818152602001828054610d6d90615564565b8015610dba5780601f10610d8f57610100808354040283529160200191610dba565b820191906000526020600020905b815481529060010190602001808311610d9d57829003601f168201915b505050505081565b610dcc3382612b24565b610e0b576040517f08c379a0000000000000000000000000000000000000000000000000000000008152600401610e0290615249565b60405180910390fd5b610e16838383612c02565b505050565b6060600160149054906101000a900460ff1615610e6d576040517f08c379a0000000000000000000000000000000000000000000000000000000008152600401610e64906151c9565b60405180910390fd5b600b805480602002602001604051908101604052809291908181526020016000905b82821015610f215783829060005260206000209060020201604051806040016040529081600082015481526020016001820160009054906101000a900473ffffffffffffffffffffffffffffffffffffffff1673ffffffffffffffffffffffffffffffffffffffff1673ffffffffffffffffffffffffffffffffffffffff168152505081526020019060010190610e8f565b50505050905090565b60008054906101000a900473ffffffffffffffffffffffffffffffffffffffff1673ffffffffffffffffffffffffffffffffffffffff163373ffffffffffffffffffffffffffffffffffffffff161480610fd15750600160009054906101000a900473ffffffffffffffffffffffffffffffffffffffff1673ffffffffffffffffffffffffffffffffffffffff163373ffffffffffffffffffffffffffffffffffffffff16145b611010576040517f08c379a000000000000000000000000000000000000000000000000000000000815260040161100790615229565b60405180910390fd5b600a60009054906101000a900473ffffffffffffffffffffffffffffffffffffffff1673ffffffffffffffffffffffffffffffffffffffff1663a39d716d6040518163ffffffff1660e01b8152600401600060405180830381600087803b15801561107a57600080fd5b505af115801561108e573d6000803e3d6000fd5b50505050565b6110af8383836040518060200160405280600081525061224a565b505050565b600b81815481106110c457600080fd5b90600052602060002090600202016000915090508060000154908060010160009054906101000a900473ffffffffffffffffffffffffffffffffffffffff16905082565b600a60009054906101000a900473ffffffffffffffffffffffffffffffffffffffff1673ffffffffffffffffffffffffffffffffffffffff163373ffffffffffffffffffffffffffffffffffffffff1614611198576040517f08c379a000000000000000000000000000000000000000000000000000000000815260040161118f90614f49565b60405180910390fd5b81600c60008373ffffffffffffffffffffffffffffffffffffffff1673ffffffffffffffffffffffffffffffffffffffff16815260200190815260200160002060006111e384611399565b8152602001908152602001600020819055505050565b600160149054906101000a900460ff1681565b6000806004600084815260200190815260200160002060009054906101000a900473ffffffffffffffffffffffffffffffffffffffff169050600073ffffffffffffffffffffffffffffffffffffffff168173ffffffffffffffffffffffffffffffffffffffff1614156112b5576040517f08c379a00000000000000000000000000000000000000000000000000000000081526004016112ac90615129565b60405180910390fd5b80915050919050565b6112c6612e53565b600a60009054906101000a900473ffffffffffffffffffffffffffffffffffffffff1673ffffffffffffffffffffffffffffffffffffffff1663320b2ad96040518163ffffffff1660e01b8152600401600060405180830381600087803b15801561133057600080fd5b505af1158015611344573d6000803e3d6000fd5b505050507f62e78cea01bee320cd4e420270b5ea74000d11b0c9f74754ebdbfc544b05a258336040516113779190614e3f565b60405180910390a1565b60056020528060005260406000206000915090505481565b60008073ffffffffffffffffffffffffffffffffffffffff168273ffffffffffffffffffffffffffffffffffffffff16141561140a576040517f08c379a0000000000000000000000000000000000000000000000000000000008152600401611401906150c9565b60405180910390fd5b600560008373ffffffffffffffffffffffffffffffffffffffff1673ffffffffffffffffffffffffffffffffffffffff168152602001908152602001600020549050919050565b61145a8161120c565b73ffffffffffffffffffffffffffffffffffffffff163373ffffffffffffffffffffffffffffffffffffffff161461149157600080fd5b6114bd600a60009054906101000a900473ffffffffffffffffffffffffffffffffffffffff1682610bf4565b50565b6114c8612fa5565b600a60009054906101000a900473ffffffffffffffffffffffffffffffffffffffff1673ffffffffffffffffffffffffffffffffffffffff1663fc8234cb6040518163ffffffff1660e01b8152600401600060405180830381600087803b15801561153257600080fd5b505af1158015611546573d6000803e3d6000fd5b505050507f5db9ee0a495bf2e6ff9c91a7834c1ba4fdd244a5e8aa4e537bd38aeae4b073aa336040516115799190614e3f565b60405180910390a1565b600160149054906101000a900460ff16156115d3576040517f08c379a00000000000000000000000000000000000000000000000000000000081526004016115ca906151c9565b60405180910390fd5b600a60009054906101000a900473ffffffffffffffffffffffffffffffffffffffff1673ffffffffffffffffffffffffffffffffffffffff1663ddd5e1b282336040518363ffffffff1660e01b81526004016116309291906152bf565b600060405180830381600087803b15801561164a57600080fd5b505af115801561165e573d6000803e3d6000fd5b505050506000600b828154811061169e577f4e487b7100000000000000000000000000000000000000000000000000000000600052603260045260246000fd5b906000526020600020906002020160010160009054906101000a900473ffffffffffffffffffffffffffffffffffffffff16905033600b838154811061170d577f4e487b7100000000000000000000000000000000000000000000000000000000600052603260045260246000fd5b906000526020600020906002020160010160006101000a81548173ffffffffffffffffffffffffffffffffffffffff021916908373ffffffffffffffffffffffffffffffffffffffff1602179055506000600161176983611399565b6117739190615400565b90506000600190505b8181116118ec5783600c60008573ffffffffffffffffffffffffffffffffffffffff1673ffffffffffffffffffffffffffffffffffffffff16815260200190815260200160002060008381526020019081526020016000205414156118d957600c60008473ffffffffffffffffffffffffffffffffffffffff1673ffffffffffffffffffffffffffffffffffffffff168152602001908152602001600020600083815260200190815260200160002054600c60008573ffffffffffffffffffffffffffffffffffffffff1673ffffffffffffffffffffffffffffffffffffffff168152602001908152602001600020600083815260200190815260200160002081905550600c60008473ffffffffffffffffffffffffffffffffffffffff1673ffffffffffffffffffffffffffffffffffffffff1681526020019081526020016000206000838152602001908152602001600020600090556118ec565b80806118e490615596565b91505061177c565b5082600c60003373ffffffffffffffffffffffffffffffffffffffff1673ffffffffffffffffffffffffffffffffffffffff168152602001908152602001600020600061193833611399565b815260200190815260200160002081905550505050565b600a60009054906101000a900473ffffffffffffffffffffffffffffffffffffffff1681565b600a60009054906101000a900473ffffffffffffffffffffffffffffffffffffffff1673ffffffffffffffffffffffffffffffffffffffff163373ffffffffffffffffffffffffffffffffffffffff1614611a05576040517f08c379a00000000000000000000000000000000000000000000000000000000081526004016119fc90614f49565b60405180910390fd5b6000611a1082611399565b90506000600182611a219190615400565b90506000821415611a8657600c60008473ffffffffffffffffffffffffffffffffffffffff1673ffffffffffffffffffffffffffffffffffffffff16815260200190815260200160002060006001815260200190815260200160002060009055611bff565b6000600190505b818111611bfd5784600c60008673ffffffffffffffffffffffffffffffffffffffff1673ffffffffffffffffffffffffffffffffffffffff1681526020019081526020016000206000838152602001908152602001600020541415611bea57600c60008573ffffffffffffffffffffffffffffffffffffffff1673ffffffffffffffffffffffffffffffffffffffff168152602001908152602001600020600083815260200190815260200160002054600c60008673ffffffffffffffffffffffffffffffffffffffff1673ffffffffffffffffffffffffffffffffffffffff168152602001908152602001600020600083815260200190815260200160002081905550600c60008573ffffffffffffffffffffffffffffffffffffffff1673ffffffffffffffffffffffffffffffffffffffff168152602001908152602001600020600083815260200190815260200160002060009055611bfd565b8080611bf590615596565b915050611a8d565b505b50505050565b611c0e8161309f565b7f80ed712c2f05d0582ad48468b2f2f34a004b0760c0277f6ed2a949a89a62cb2781604051611c3d9190614e3f565b60405180910390a150565b6060600160149054906101000a900460ff1615611c9a576040517f08c379a0000000000000000000000000000000000000000000000000000000008152600401611c91906151c9565b60405180910390fd5b60003390506000611caa82611399565b90506000811415611d3957600067ffffffffffffffff811115611cf6577f4e487b7100000000000000000000000000000000000000000000000000000000600052604160045260246000fd5b604051908082528060200260200182016040528015611d2f57816020015b611d1c613eaa565b815260200190600190039081611d145790505b5092505050611f30565b60008167ffffffffffffffff811115611d7b577f4e487b7100000000000000000000000000000000000000000000000000000000600052604160045260246000fd5b604051908082528060200260200182016040528015611db457816020015b611da1613eaa565b815260200190600190039081611d995790505b50905060005b82811015611f2857600b600c60008673ffffffffffffffffffffffffffffffffffffffff1673ffffffffffffffffffffffffffffffffffffffff1681526020019081526020016000206000600184611e129190615400565b81526020019081526020016000205481548110611e58577f4e487b7100000000000000000000000000000000000000000000000000000000600052603260045260246000fd5b9060005260206000209060020201604051806040016040529081600082015481526020016001820160009054906101000a900473ffffffffffffffffffffffffffffffffffffffff1673ffffffffffffffffffffffffffffffffffffffff1673ffffffffffffffffffffffffffffffffffffffff1681525050828281518110611f0a577f4e487b7100000000000000000000000000000000000000000000000000000000600052603260045260246000fd5b60200260200101819052508080611f2090615596565b915050611dba565b508093505050505b90565b606060038054611f4290615564565b80601f0160208091040260200160405190810160405280929190818152602001828054611f6e90615564565b8015611fbb5780601f10611f9057610100808354040283529160200191611fbb565b820191906000526020600020905b815481529060010190602001808311611f9e57829003601f168201915b5050505050905090565b60046020528060005260406000206000915054906101000a900473ffffffffffffffffffffffffffffffffffffffff1681565b600c602052816000526040600020602052806000526040600020600091509150505481565b3373ffffffffffffffffffffffffffffffffffffffff168273ffffffffffffffffffffffffffffffffffffffff16141561208c576040517f08c379a000000000000000000000000000000000000000000000000000000000815260040161208390615029565b60405180910390fd5b80600760003373ffffffffffffffffffffffffffffffffffffffff1673ffffffffffffffffffffffffffffffffffffffff16815260200190815260200160002060008473ffffffffffffffffffffffffffffffffffffffff1673ffffffffffffffffffffffffffffffffffffffff16815260200190815260200160002060006101000a81548160ff0219169083151502179055508173ffffffffffffffffffffffffffffffffffffffff163373ffffffffffffffffffffffffffffffffffffffff167f17307eab39ab6107e8899845ad3d59bd9653f200f220920489ca2b5937696c318360405161217d9190614ef1565b60405180910390a35050565b60066020528060005260406000206000915054906101000a900473ffffffffffffffffffffffffffffffffffffffff1681565b600380546121c990615564565b80601f01602080910402602001604051908101604052809291908181526020018280546121f590615564565b80156122425780601f1061221757610100808354040283529160200191612242565b820191906000526020600020905b81548152906001019060200180831161222557829003601f168201915b505050505081565b6122543383612b24565b612293576040517f08c379a000000000000000000000000000000000000000000000000000000000815260040161228a90615249565b60405180910390fd5b61229f848484846131e1565b50505050565b600a60009054906101000a900473ffffffffffffffffffffffffffffffffffffffff1673ffffffffffffffffffffffffffffffffffffffff166337e246ad826040518263ffffffff1660e01b815260040161230091906152a4565b60206040518083038186803b15801561231857600080fd5b505afa15801561232c573d6000803e3d6000fd5b505050506040513d601f19601f8201168201806040525081019061235091906142b2565b15612390576040517f08c379a000000000000000000000000000000000000000000000000000000000815260040161238790614fc9565b60405180910390fd5b6123998161323d565b50565b6123a58161360f565b7faa4643d7ecb56cf699eba718fdabd27c5c51326f5caf6724ee849100a18061c7816040516123d49190614e3f565b60405180910390a150565b6000806123eb83613750565b905080915050919050565b6060612401826129ff565b612440576040517f08c379a000000000000000000000000000000000000000000000000000000000815260040161243790615149565b60405180910390fd5b600060086000848152602001908152602001600020805461246090615564565b80601f016020809104026020016040519081016040528092919081815260200182805461248c90615564565b80156124d95780601f106124ae576101008083540402835291602001916124d9565b820191906000526020600020905b8154815290600101906020018083116124bc57829003601f168201915b5050505050905060006124ea61392d565b9050600081511415612500578192505050612527565b8082604051602001612513929190614e06565b604051602081830303815290604052925050505b919050565b600160009054906101000a900473ffffffffffffffffffffffffffffffffffffffff1673ffffffffffffffffffffffffffffffffffffffff163373ffffffffffffffffffffffffffffffffffffffff16146125bc576040517f08c379a00000000000000000000000000000000000000000000000000000000081526004016125b390615269565b60405180910390fd5b60004790506000600160009054906101000a900473ffffffffffffffffffffffffffffffffffffffff1673ffffffffffffffffffffffffffffffffffffffff168260405161260990614e2a565b60006040518083038185875af1925050503d8060008114612646576040519150601f19603f3d011682016040523d82523d6000602084013e61264b565b606091505b505090508061268f576040517f08c379a0000000000000000000000000000000000000000000000000000000008152600401612686906151e9565b60405180910390fd5b7f24308498af6264648777135954f19fedee804b3730aa080082df6192a40e75d6826040516126be91906152a4565b60405180910390a15050565b600280546126d790615564565b80601f016020809104026020016040519081016040528092919081815260200182805461270390615564565b80156127505780601f1061272557610100808354040283529160200191612750565b820191906000526020600020905b81548152906001019060200180831161273357829003601f168201915b505050505081565b6000600760008473ffffffffffffffffffffffffffffffffffffffff1673ffffffffffffffffffffffffffffffffffffffff16815260200190815260200160002060008373ffffffffffffffffffffffffffffffffffffffff1673ffffffffffffffffffffffffffffffffffffffff16815260200190815260200160002060009054906101000a900460ff16905092915050565b6127f4613eaa565b600160149054906101000a900460ff1615612844576040517f08c379a000000000000000000000000000000000000000000000000000000000815260040161283b906151c9565b60405180910390fd5b600b828154811061287e577f4e487b7100000000000000000000000000000000000000000000000000000000600052603260045260246000fd5b9060005260206000209060020201604051806040016040529081600082015481526020016001820160009054906101000a900473ffffffffffffffffffffffffffffffffffffffff1673ffffffffffffffffffffffffffffffffffffffff1673ffffffffffffffffffffffffffffffffffffffff16815250509050919050565b60076020528160005260406000206020528060005260406000206000915091509054906101000a900460ff1681565b60008054906101000a900473ffffffffffffffffffffffffffffffffffffffff1673ffffffffffffffffffffffffffffffffffffffff163373ffffffffffffffffffffffffffffffffffffffff16146129bb576040517f08c379a00000000000000000000000000000000000000000000000000000000081526004016129b2906151a9565b60405180910390fd5b80600a60006101000a81548173ffffffffffffffffffffffffffffffffffffffff021916908373ffffffffffffffffffffffffffffffffffffffff16021790555050565b60008073ffffffffffffffffffffffffffffffffffffffff166004600084815260200190815260200160002060009054906101000a900473ffffffffffffffffffffffffffffffffffffffff1673ffffffffffffffffffffffffffffffffffffffff1614159050919050565b816006600083815260200190815260200160002060006101000a81548173ffffffffffffffffffffffffffffffffffffffff021916908373ffffffffffffffffffffffffffffffffffffffff160217905550808273ffffffffffffffffffffffffffffffffffffffff16612ade8361120c565b73ffffffffffffffffffffffffffffffffffffffff167f8c5be1e5ebec7d5bd14f71427d1e84f3dd0314c0f7b2291e5b200ac8c7c3b92560405160405180910390a45050565b6000612b2f826129ff565b612b6e576040517f08c379a0000000000000000000000000000000000000000000000000000000008152600401612b6590615069565b60405180910390fd5b6000612b798361120c565b90508073ffffffffffffffffffffffffffffffffffffffff168473ffffffffffffffffffffffffffffffffffffffff161480612be857508373ffffffffffffffffffffffffffffffffffffffff16612bd084610b6f565b73ffffffffffffffffffffffffffffffffffffffff16145b80612bf95750612bf88185612758565b5b91505092915050565b8273ffffffffffffffffffffffffffffffffffffffff16612c228261120c565b73ffffffffffffffffffffffffffffffffffffffff1614612c78576040517f08c379a0000000000000000000000000000000000000000000000000000000008152600401612c6f90615189565b60405180910390fd5b600073ffffffffffffffffffffffffffffffffffffffff168273ffffffffffffffffffffffffffffffffffffffff161415612ce8576040517f08c379a0000000000000000000000000000000000000000000000000000000008152600401612cdf90615009565b60405180910390fd5b612cf3600082612a6b565b6001600560008573ffffffffffffffffffffffffffffffffffffffff1673ffffffffffffffffffffffffffffffffffffffff1681526020019081526020016000206000828254612d439190615456565b925050819055506001600560008473ffffffffffffffffffffffffffffffffffffffff1673ffffffffffffffffffffffffffffffffffffffff1681526020019081526020016000206000828254612d9a9190615400565b92505081905550816004600083815260200190815260200160002060006101000a81548173ffffffffffffffffffffffffffffffffffffffff021916908373ffffffffffffffffffffffffffffffffffffffff160217905550808273ffffffffffffffffffffffffffffffffffffffff168473ffffffffffffffffffffffffffffffffffffffff167fddf252ad1be2c89b69c2b068fc378daa952ba7f163c4a11628f55a4df523b3ef60405160405180910390a4505050565b60008054906101000a900473ffffffffffffffffffffffffffffffffffffffff1673ffffffffffffffffffffffffffffffffffffffff163373ffffffffffffffffffffffffffffffffffffffff161480612efa5750600160009054906101000a900473ffffffffffffffffffffffffffffffffffffffff1673ffffffffffffffffffffffffffffffffffffffff163373ffffffffffffffffffffffffffffffffffffffff16145b612f39576040517f08c379a0000000000000000000000000000000000000000000000000000000008152600401612f3090615229565b60405180910390fd5b600160149054906101000a900460ff1615612f89576040517f08c379a0000000000000000000000000000000000000000000000000000000008152600401612f80906151c9565b60405180910390fd5b60018060146101000a81548160ff021916908315150217905550565b60008054906101000a900473ffffffffffffffffffffffffffffffffffffffff1673ffffffffffffffffffffffffffffffffffffffff163373ffffffffffffffffffffffffffffffffffffffff1614613033576040517f08c379a000000000000000000000000000000000000000000000000000000000815260040161302a906151a9565b60405180910390fd5b600160149054906101000a900460ff16613082576040517f08c379a000000000000000000000000000000000000000000000000000000000815260040161307990614fa9565b60405180910390fd5b6000600160146101000a81548160ff021916908315150217905550565b60008054906101000a900473ffffffffffffffffffffffffffffffffffffffff1673ffffffffffffffffffffffffffffffffffffffff163373ffffffffffffffffffffffffffffffffffffffff161461312d576040517f08c379a0000000000000000000000000000000000000000000000000000000008152600401613124906151a9565b60405180910390fd5b600073ffffffffffffffffffffffffffffffffffffffff168173ffffffffffffffffffffffffffffffffffffffff16141561319d576040517f08c379a000000000000000000000000000000000000000000000000000000000815260040161319490615089565b60405180910390fd5b80600160006101000a81548173ffffffffffffffffffffffffffffffffffffffff021916908373ffffffffffffffffffffffffffffffffffffffff16021790555050565b6131ec848484612c02565b6131f884848484613944565b613237576040517f08c379a000000000000000000000000000000000000000000000000000000000815260040161322e90614f69565b60405180910390fd5b50505050565b600160149054906101000a900460ff161561328d576040517f08c379a0000000000000000000000000000000000000000000000000000000008152600401613284906151c9565b60405180910390fd5b600033905061329b8261120c565b73ffffffffffffffffffffffffffffffffffffffff168173ffffffffffffffffffffffffffffffffffffffff1614613308576040517f08c379a00000000000000000000000000000000000000000000000000000000081526004016132ff90614fe9565b60405180910390fd5b600061331382611399565b905061331e83613ad4565b600061332983611399565b9050600b8481548110613365577f4e487b7100000000000000000000000000000000000000000000000000000000600052603260045260246000fd5b90600052602060002090600202016000808201600090556001820160006101000a81549073ffffffffffffffffffffffffffffffffffffffff02191690555050600081141561344c57600c60008473ffffffffffffffffffffffffffffffffffffffff1673ffffffffffffffffffffffffffffffffffffffff16815260200190815260200160002060006001815260200190815260200160002060009055838373ffffffffffffffffffffffffffffffffffffffff167f696de425f79f4a40bc6d2122ca50507f0efbeabbff86a84871b7196ab8ea8df760405160405180910390a3613609565b6000600190505b8281116136075784600c60008673ffffffffffffffffffffffffffffffffffffffff1673ffffffffffffffffffffffffffffffffffffffff16815260200190815260200160002060008381526020019081526020016000205414156135f457600c60008573ffffffffffffffffffffffffffffffffffffffff1673ffffffffffffffffffffffffffffffffffffffff168152602001908152602001600020600084815260200190815260200160002054600c60008673ffffffffffffffffffffffffffffffffffffffff1673ffffffffffffffffffffffffffffffffffffffff168152602001908152602001600020600083815260200190815260200160002081905550600c60008573ffffffffffffffffffffffffffffffffffffffff1673ffffffffffffffffffffffffffffffffffffffff168152602001908152602001600020600084815260200190815260200160002060009055848473ffffffffffffffffffffffffffffffffffffffff167f696de425f79f4a40bc6d2122ca50507f0efbeabbff86a84871b7196ab8ea8df760405160405180910390a3613607565b80806135ff90615596565b915050613453565b505b50505050565b60008054906101000a900473ffffffffffffffffffffffffffffffffffffffff1673ffffffffffffffffffffffffffffffffffffffff163373ffffffffffffffffffffffffffffffffffffffff161461369d576040517f08c379a0000000000000000000000000000000000000000000000000000000008152600401613694906151a9565b60405180910390fd5b600073ffffffffffffffffffffffffffffffffffffffff168173ffffffffffffffffffffffffffffffffffffffff16141561370d576040517f08c379a000000000000000000000000000000000000000000000000000000000815260040161370490615049565b60405180910390fd5b806000806101000a81548173ffffffffffffffffffffffffffffffffffffffff021916908373ffffffffffffffffffffffffffffffffffffffff16021790555050565b6000600160149054906101000a900460ff16156137a2576040517f08c379a0000000000000000000000000000000000000000000000000000000008152600401613799906151c9565b60405180910390fd5b60003390506137b16009613c2c565b60006137bd6009613c42565b90506137c98282613c50565b6137d38185613e1e565b80600c60008473ffffffffffffffffffffffffffffffffffffffff1673ffffffffffffffffffffffffffffffffffffffff168152602001908152602001600020600061381e85611399565b815260200190815260200160002081905550600060405180604001604052808381526020018473ffffffffffffffffffffffffffffffffffffffff168152509050600b8190806001815401808255809150506001900390600052602060002090600202016000909190919091506000820151816000015560208201518160010160006101000a81548173ffffffffffffffffffffffffffffffffffffffff021916908373ffffffffffffffffffffffffffffffffffffffff1602179055505050818373ffffffffffffffffffffffffffffffffffffffff167f30385c845b448a36257a6a1716e6ad2e1bc2cbe333cde1e69fe849ad6511adfe60405160405180910390a3819350505050919050565b606060405180602001604052806000815250905090565b60006139658473ffffffffffffffffffffffffffffffffffffffff16613e92565b15613ac7578373ffffffffffffffffffffffffffffffffffffffff1663150b7a02338786866040518563ffffffff1660e01b81526004016139a99493929190614e5a565b602060405180830381600087803b1580156139c357600080fd5b505af19250505080156139f457506040513d601f19601f820116820180604052508101906139f19190614304565b60015b613a77573d8060008114613a24576040519150601f19603f3d011682016040523d82523d6000602084013e613a29565b606091505b50600081511415613a6f576040517f08c379a0000000000000000000000000000000000000000000000000000000008152600401613a6690614f69565b60405180910390fd5b805181602001fd5b63150b7a0260e01b7bffffffffffffffffffffffffffffffffffffffffffffffffffffffff1916817bffffffffffffffffffffffffffffffffffffffffffffffffffffffff191614915050613acc565b600190505b949350505050565b6000613adf8261120c565b9050613aed81600084613ea5565b613af8600083612a6b565b6001600560008373ffffffffffffffffffffffffffffffffffffffff1673ffffffffffffffffffffffffffffffffffffffff1681526020019081526020016000206000828254613b489190615456565b925050819055506004600083815260200190815260200160002060006101000a81549073ffffffffffffffffffffffffffffffffffffffff02191690556000600860008481526020019081526020016000208054613ba590615564565b905014613bcc57600860008381526020019081526020016000206000613bcb9190613eda565b5b81600073ffffffffffffffffffffffffffffffffffffffff168273ffffffffffffffffffffffffffffffffffffffff167fddf252ad1be2c89b69c2b068fc378daa952ba7f163c4a11628f55a4df523b3ef60405160405180910390a45050565b6001816000016000828254019250508190555050565b600081600001549050919050565b600073ffffffffffffffffffffffffffffffffffffffff168273ffffffffffffffffffffffffffffffffffffffff161415613cc0576040517f08c379a0000000000000000000000000000000000000000000000000000000008152600401613cb790615109565b60405180910390fd5b613cc9816129ff565b15613d09576040517f08c379a0000000000000000000000000000000000000000000000000000000008152600401613d0090614f89565b60405180910390fd5b613d1560008383613ea5565b6001600560008473ffffffffffffffffffffffffffffffffffffffff1673ffffffffffffffffffffffffffffffffffffffff1681526020019081526020016000206000828254613d659190615400565b92505081905550816004600083815260200190815260200160002060006101000a81548173ffffffffffffffffffffffffffffffffffffffff021916908373ffffffffffffffffffffffffffffffffffffffff160217905550808273ffffffffffffffffffffffffffffffffffffffff16600073ffffffffffffffffffffffffffffffffffffffff167fddf252ad1be2c89b69c2b068fc378daa952ba7f163c4a11628f55a4df523b3ef60405160405180910390a45050565b613e27826129ff565b613e66576040517f08c379a0000000000000000000000000000000000000000000000000000000008152600401613e5d906150e9565b60405180910390fd5b80600860008481526020019081526020016000209080519060200190613e8d929190613f1a565b505050565b600080823b905060008111915050919050565b505050565b604051806040016040528060008152602001600073ffffffffffffffffffffffffffffffffffffffff1681525090565b508054613ee690615564565b6000825580601f10613ef85750613f17565b601f016020900490600052602060002090810190613f169190613fa0565b5b50565b828054613f2690615564565b90600052602060002090601f016020900481019282613f485760008555613f8f565b82601f10613f6157805160ff1916838001178555613f8f565b82800160010185558215613f8f579182015b82811115613f8e578251825591602001919060010190613f73565b5b509050613f9c9190613fa0565b5090565b5b80821115613fb9576000816000905550600101613fa1565b5090565b6000613fd0613fcb84615319565b6152e8565b905082815260208101848484011115613fe857600080fd5b613ff3848285615522565b509392505050565b600061400e61400984615349565b6152e8565b90508281526020810184848401111561402657600080fd5b614031848285615522565b509392505050565b6000813590506140488161567d565b92915050565b60008135905061405d81615694565b92915050565b60008151905061407281615694565b92915050565b600081359050614087816156ab565b92915050565b60008151905061409c816156ab565b92915050565b600082601f8301126140b357600080fd5b81356140c3848260208601613fbd565b91505092915050565b600082601f8301126140dd57600080fd5b81356140ed848260208601613ffb565b91505092915050565b600081359050614105816156c2565b92915050565b60006020828403121561411d57600080fd5b600061412b84828501614039565b91505092915050565b6000806040838503121561414757600080fd5b600061415585828601614039565b925050602061416685828601614039565b9150509250929050565b60008060006060848603121561418557600080fd5b600061419386828701614039565b93505060206141a486828701614039565b92505060406141b5868287016140f6565b9150509250925092565b600080600080608085870312156141d557600080fd5b60006141e387828801614039565b94505060206141f487828801614039565b9350506040614205878288016140f6565b925050606085013567ffffffffffffffff81111561422257600080fd5b61422e878288016140a2565b91505092959194509250565b6000806040838503121561424d57600080fd5b600061425b85828601614039565b925050602061426c8582860161404e565b9150509250929050565b6000806040838503121561428957600080fd5b600061429785828601614039565b92505060206142a8858286016140f6565b9150509250929050565b6000602082840312156142c457600080fd5b60006142d284828501614063565b91505092915050565b6000602082840312156142ed57600080fd5b60006142fb84828501614078565b91505092915050565b60006020828403121561431657600080fd5b60006143248482850161408d565b91505092915050565b60006020828403121561433f57600080fd5b600082013567ffffffffffffffff81111561435957600080fd5b614365848285016140cc565b91505092915050565b60006020828403121561438057600080fd5b600061438e848285016140f6565b91505092915050565b600080604083850312156143aa57600080fd5b60006143b8858286016140f6565b92505060206143c985828601614039565b9150509250929050565b60006143df8383614d8a565b60408301905092915050565b6143f48161548a565b82525050565b6144038161548a565b82525050565b600061441482615389565b61441e81856153b7565b935061442983615379565b8060005b8381101561445a57815161444188826143d3565b975061444c836153aa565b92505060018101905061442d565b5085935050505092915050565b6144708161549c565b82525050565b600061448182615394565b61448b81856153c8565b935061449b818560208601615531565b6144a48161566c565b840191505092915050565b6144b8816154fe565b82525050565b60006144c98261539f565b6144d381856153e4565b93506144e3818560208601615531565b6144ec8161566c565b840191505092915050565b60006145028261539f565b61450c81856153f5565b935061451c818560208601615531565b80840191505092915050565b60006145356020836153e4565b91507f4f6e6c792041756374696f6e20436f6e74726163742063616e206163636573736000830152602082019050919050565b60006145756032836153e4565b91507f4552433732313a207472616e7366657220746f206e6f6e20455243373231526560008301527f63656976657220696d706c656d656e74657200000000000000000000000000006020830152604082019050919050565b60006145db601c836153e4565b91507f4552433732313a20746f6b656e20616c7265616479206d696e746564000000006000830152602082019050919050565b600061461b6014836153e4565b91507f53797374656d206973204e6f74205061757365640000000000000000000000006000830152602082019050919050565b600061465b601a836153e4565b91507f4275726e206661696c6564204e4654206f6e2041756374696f6e0000000000006000830152602082019050919050565b600061469b601b836153e4565b91507f4e465420717565727920666f72206e6f74206f776e6564204e465400000000006000830152602082019050919050565b60006146db6024836153e4565b91507f4552433732313a207472616e7366657220746f20746865207a65726f2061646460008301527f72657373000000000000000000000000000000000000000000000000000000006020830152604082019050919050565b60006147416019836153e4565b91507f4552433732313a20617070726f766520746f2063616c6c6572000000000000006000830152602082019050919050565b60006147816013836153e4565b91507f496e76616c69642043454f2041646472657373000000000000000000000000006000830152602082019050919050565b60006147c1602c836153e4565b91507f4552433732313a206f70657261746f7220717565727920666f72206e6f6e657860008301527f697374656e7420746f6b656e00000000000000000000000000000000000000006020830152604082019050919050565b60006148276013836153e4565b91507f496e76616c69642043464f2041646472657373000000000000000000000000006000830152602082019050919050565b60006148676038836153e4565b91507f4552433732313a20617070726f76652063616c6c6572206973206e6f74206f7760008301527f6e6572206e6f7220617070726f76656420666f7220616c6c00000000000000006020830152604082019050919050565b60006148cd602a836153e4565b91507f4552433732313a2062616c616e636520717565727920666f7220746865207a6560008301527f726f2061646472657373000000000000000000000000000000000000000000006020830152604082019050919050565b6000614933602e836153e4565b91507f45524337323155524953746f726167653a2055524920736574206f66206e6f6e60008301527f6578697374656e7420746f6b656e0000000000000000000000000000000000006020830152604082019050919050565b60006149996020836153e4565b91507f4552433732313a206d696e7420746f20746865207a65726f20616464726573736000830152602082019050919050565b60006149d9602a836153e4565b91507f4552433732313a204f776e657220717565727920666f72206e6f6e2d6578697360008301527f74656e7420746f6b656e000000000000000000000000000000000000000000006020830152604082019050919050565b6000614a3f6031836153e4565b91507f45524337323155524953746f726167653a2055524920717565727920666f722060008301527f6e6f6e6578697374656e7420746f6b656e0000000000000000000000000000006020830152604082019050919050565b6000614aa5602c836153e4565b91507f4552433732313a20617070726f76656420717565727920666f72206e6f6e657860008301527f697374656e7420746f6b656e00000000000000000000000000000000000000006020830152604082019050919050565b6000614b0b6029836153e4565b91507f4552433732313a207472616e73666572206f6620746f6b656e2074686174206960008301527f73206e6f74206f776e00000000000000000000000000000000000000000000006020830152604082019050919050565b6000614b716016836153e4565b91507f4f6e6c792043454f20697320417574686f72697a6564000000000000000000006000830152602082019050919050565b6000614bb16010836153e4565b91507f53797374656d20697320506175736564000000000000000000000000000000006000830152602082019050919050565b6000614bf16015836153e4565b91507f46756e6473205472616e73666572204661696c656400000000000000000000006000830152602082019050919050565b6000614c316021836153e4565b91507f4552433732313a20617070726f76616c20746f2063757272656e74206f776e6560008301527f72000000000000000000000000000000000000000000000000000000000000006020830152604082019050919050565b6000614c976000836153d9565b9150600082019050919050565b6000614cb16019836153e4565b91507f4f6e6c792043686965667320697320417574686f72697a6564000000000000006000830152602082019050919050565b6000614cf16031836153e4565b91507f4552433732313a207472616e736665722063616c6c6572206973206e6f74206f60008301527f776e6572206e6f7220617070726f7665640000000000000000000000000000006020830152604082019050919050565b6000614d576016836153e4565b91507f4f6e6c792043464f20697320417574686f72697a6564000000000000000000006000830152602082019050919050565b604082016000820151614da06000850182614de8565b506020820151614db360208501826143eb565b50505050565b604082016000820151614dcf6000850182614de8565b506020820151614de260208501826143eb565b50505050565b614df1816154f4565b82525050565b614e00816154f4565b82525050565b6000614e1282856144f7565b9150614e1e82846144f7565b91508190509392505050565b6000614e3582614c8a565b9150819050919050565b6000602082019050614e5460008301846143fa565b92915050565b6000608082019050614e6f60008301876143fa565b614e7c60208301866143fa565b614e896040830185614df7565b8181036060830152614e9b8184614476565b905095945050505050565b6000604082019050614ebb60008301856143fa565b614ec86020830184614df7565b9392505050565b60006020820190508181036000830152614ee98184614409565b905092915050565b6000602082019050614f066000830184614467565b92915050565b6000602082019050614f2160008301846144af565b92915050565b60006020820190508181036000830152614f4181846144be565b905092915050565b60006020820190508181036000830152614f6281614528565b9050919050565b60006020820190508181036000830152614f8281614568565b9050919050565b60006020820190508181036000830152614fa2816145ce565b9050919050565b60006020820190508181036000830152614fc28161460e565b9050919050565b60006020820190508181036000830152614fe28161464e565b9050919050565b600060208201905081810360008301526150028161468e565b9050919050565b60006020820190508181036000830152615022816146ce565b9050919050565b6000602082019050818103600083015261504281614734565b9050919050565b6000602082019050818103600083015261506281614774565b9050919050565b60006020820190508181036000830152615082816147b4565b9050919050565b600060208201905081810360008301526150a28161481a565b9050919050565b600060208201905081810360008301526150c28161485a565b9050919050565b600060208201905081810360008301526150e2816148c0565b9050919050565b6000602082019050818103600083015261510281614926565b9050919050565b600060208201905081810360008301526151228161498c565b9050919050565b60006020820190508181036000830152615142816149cc565b9050919050565b6000602082019050818103600083015261516281614a32565b9050919050565b6000602082019050818103600083015261518281614a98565b9050919050565b600060208201905081810360008301526151a281614afe565b9050919050565b600060208201905081810360008301526151c281614b64565b9050919050565b600060208201905081810360008301526151e281614ba4565b9050919050565b6000602082019050818103600083015261520281614be4565b9050919050565b6000602082019050818103600083015261522281614c24565b9050919050565b6000602082019050818103600083015261524281614ca4565b9050919050565b6000602082019050818103600083015261526281614ce4565b9050919050565b6000602082019050818103600083015261528281614d4a565b9050919050565b600060408201905061529e6000830184614db9565b92915050565b60006020820190506152b96000830184614df7565b92915050565b60006040820190506152d46000830185614df7565b6152e160208301846143fa565b9392505050565b6000604051905081810181811067ffffffffffffffff8211171561530f5761530e61563d565b5b8060405250919050565b600067ffffffffffffffff8211156153345761533361563d565b5b601f19601f8301169050602081019050919050565b600067ffffffffffffffff8211156153645761536361563d565b5b601f19601f8301169050602081019050919050565b6000819050602082019050919050565b600081519050919050565b600081519050919050565b600081519050919050565b6000602082019050919050565b600082825260208201905092915050565b600082825260208201905092915050565b600081905092915050565b600082825260208201905092915050565b600081905092915050565b600061540b826154f4565b9150615416836154f4565b9250827fffffffffffffffffffffffffffffffffffffffffffffffffffffffffffffffff0382111561544b5761544a6155df565b5b828201905092915050565b6000615461826154f4565b915061546c836154f4565b92508282101561547f5761547e6155df565b5b828203905092915050565b6000615495826154d4565b9050919050565b60008115159050919050565b60007fffffffff0000000000000000000000000000000000000000000000000000000082169050919050565b600073ffffffffffffffffffffffffffffffffffffffff82169050919050565b6000819050919050565b600061550982615510565b9050919050565b600061551b826154d4565b9050919050565b82818337600083830152505050565b60005b8381101561554f578082015181840152602081019050615534565b8381111561555e576000848401525b50505050565b6000600282049050600182168061557c57607f821691505b602082108114156155905761558f61560e565b5b50919050565b60006155a1826154f4565b91507fffffffffffffffffffffffffffffffffffffffffffffffffffffffffffffffff8214156155d4576155d36155df565b5b600182019050919050565b7f4e487b7100000000000000000000000000000000000000000000000000000000600052601160045260246000fd5b7f4e487b7100000000000000000000000000000000000000000000000000000000600052602260045260246000fd5b7f4e487b7100000000000000000000000000000000000000000000000000000000600052604160045260246000fd5b6000601f19601f8301169050919050565b6156868161548a565b811461569157600080fd5b50565b61569d8161549c565b81146156a857600080fd5b50565b6156b4816154a8565b81146156bf57600080fd5b50565b6156cb816154f4565b81146156d657600080fd5b5056fea26469706673582212205561420359e7ce559ee9aaade31ca331faf6b0a456ca113bc1455898c29aee1964736f6c63430008000033",
  "linkReferences": {},
  "deployedLinkReferences": {}
}